{"contracts/IdentiFi.sol":{"IdentiFi":{"abi":[{"inputs":[],"name":"IdentiFi__NonExistingUser","type":"error"},{"inputs":[],"name":"IdentiFi__UsernameExists","type":"error"},{"inputs":[{"internalType":"string","name":"username","type":"string"},{"components":[{"internalType":"string","name":"firstName","type":"string"},{"internalType":"string","name":"lastName","type":"string"},{"internalType":"string","name":"email","type":"string"},{"internalType":"string","name":"homeAddress","type":"string"},{"internalType":"string","name":"phoneNumber","type":"string"},{"internalType":"string","name":"dateOfBirth","type":"string"}],"internalType":"struct IdentiFi.BasicInfo","name":"basicInfo","type":"tuple"},{"components":[{"internalType":"string","name":"education","type":"string"},{"internalType":"string","name":"workHistory","type":"string"},{"internalType":"string","name":"jobTitle","type":"string"},{"internalType":"string","name":"userDescription","type":"string"},{"internalType":"string[]","name":"skills","type":"string[]"},{"internalType":"string","name":"imageUrl","type":"string"}],"internalType":"struct IdentiFi.ProfessionalInfo","name":"professionalInfo","type":"tuple"},{"components":[{"internalType":"string","name":"xProfile","type":"string"},{"internalType":"string","name":"instagramProfile","type":"string"},{"internalType":"string","name":"linkedinProfile","type":"string"}],"internalType":"struct IdentiFi.SocialLinks","name":"socialLinks","type":"tuple"},{"components":[{"internalType":"bool","name":"education","type":"bool"},{"internalType":"bool","name":"workHistory","type":"bool"},{"internalType":"bool","name":"phoneNumber","type":"bool"},{"internalType":"bool","name":"homeAddress","type":"bool"},{"internalType":"bool","name":"dateOfBirth","type":"bool"}],"internalType":"struct IdentiFi.Visibility","name":"visibility","type":"tuple"}],"name":"createUser","outputs":[],"stateMutability":"nonpayable","type":"function"},{"inputs":[{"internalType":"string","name":"username","type":"string"},{"components":[{"internalType":"string","name":"firstName","type":"string"},{"internalType":"string","name":"lastName","type":"string"},{"internalType":"string","name":"email","type":"string"},{"internalType":"string","name":"homeAddress","type":"string"},{"internalType":"string","name":"phoneNumber","type":"string"},{"internalType":"string","name":"dateOfBirth","type":"string"}],"internalType":"struct IdentiFi.BasicInfo","name":"basicInfo","type":"tuple"},{"components":[{"internalType":"string","name":"education","type":"string"},{"internalType":"string","name":"workHistory","type":"string"},{"internalType":"string","name":"jobTitle","type":"string"},{"internalType":"string","name":"userDescription","type":"string"},{"internalType":"string[]","name":"skills","type":"string[]"},{"internalType":"string","name":"imageUrl","type":"string"}],"internalType":"struct IdentiFi.ProfessionalInfo","name":"professionalInfo","type":"tuple"},{"components":[{"internalType":"string","name":"xProfile","type":"string"},{"internalType":"string","name":"instagramProfile","type":"string"},{"internalType":"string","name":"linkedinProfile","type":"string"}],"internalType":"struct IdentiFi.SocialLinks","name":"socialLinks","type":"tuple"},{"components":[{"internalType":"bool","name":"education","type":"bool"},{"internalType":"bool","name":"workHistory","type":"bool"},{"internalType":"bool","name":"phoneNumber","type":"bool"},{"internalType":"bool","name":"homeAddress","type":"bool"},{"internalType":"bool","name":"dateOfBirth","type":"bool"}],"internalType":"struct IdentiFi.Visibility","name":"visibility","type":"tuple"}],"name":"editUser","outputs":[],"stateMutability":"nonpayable","type":"function"},{"inputs":[{"internalType":"address","name":"userAddress","type":"address"}],"name":"getUserByAddress","outputs":[{"components":[{"internalType":"string","name":"firstName","type":"string"},{"internalType":"string","name":"lastName","type":"string"},{"internalType":"string","name":"email","type":"string"},{"internalType":"string","name":"homeAddress","type":"string"},{"internalType":"string","name":"phoneNumber","type":"string"},{"internalType":"string","name":"dateOfBirth","type":"string"}],"internalType":"struct IdentiFi.BasicInfo","name":"basicInfo","type":"tuple"},{"components":[{"internalType":"string","name":"education","type":"string"},{"internalType":"string","name":"workHistory","type":"string"},{"internalType":"string","name":"jobTitle","type":"string"},{"internalType":"string","name":"userDescription","type":"string"},{"internalType":"string[]","name":"skills","type":"string[]"},{"internalType":"string","name":"imageUrl","type":"string"}],"internalType":"struct IdentiFi.ProfessionalInfo","name":"professionalInfo","type":"tuple"},{"components":[{"internalType":"string","name":"xProfile","type":"string"},{"internalType":"string","name":"instagramProfile","type":"string"},{"internalType":"string","name":"linkedinProfile","type":"string"}],"internalType":"struct IdentiFi.SocialLinks","name":"socialLinks","type":"tuple"},{"components":[{"internalType":"bool","name":"education","type":"bool"},{"internalType":"bool","name":"workHistory","type":"bool"},{"internalType":"bool","name":"phoneNumber","type":"bool"},{"internalType":"bool","name":"homeAddress","type":"bool"},{"internalType":"bool","name":"dateOfBirth","type":"bool"}],"internalType":"struct IdentiFi.Visibility","name":"visibility","type":"tuple"}],"stateMutability":"view","type":"function"},{"inputs":[{"internalType":"string","name":"username","type":"string"}],"name":"getUserByUsername","outputs":[{"components":[{"internalType":"string","name":"firstName","type":"string"},{"internalType":"string","name":"lastName","type":"string"},{"internalType":"string","name":"email","type":"string"},{"internalType":"string","name":"homeAddress","type":"string"},{"internalType":"string","name":"phoneNumber","type":"string"},{"internalType":"string","name":"dateOfBirth","type":"string"}],"internalType":"struct IdentiFi.BasicInfo","name":"basicInfo","type":"tuple"},{"components":[{"internalType":"string","name":"education","type":"string"},{"internalType":"string","name":"workHistory","type":"string"},{"internalType":"string","name":"jobTitle","type":"string"},{"internalType":"string","name":"userDescription","type":"string"},{"internalType":"string[]","name":"skills","type":"string[]"},{"internalType":"string","name":"imageUrl","type":"string"}],"internalType":"struct IdentiFi.ProfessionalInfo","name":"professionalInfo","type":"tuple"},{"components":[{"internalType":"string","name":"xProfile","type":"string"},{"internalType":"string","name":"instagramProfile","type":"string"},{"internalType":"string","name":"linkedinProfile","type":"string"}],"internalType":"struct IdentiFi.SocialLinks","name":"socialLinks","type":"tuple"},{"components":[{"internalType":"bool","name":"education","type":"bool"},{"internalType":"bool","name":"workHistory","type":"bool"},{"internalType":"bool","name":"phoneNumber","type":"bool"},{"internalType":"bool","name":"homeAddress","type":"bool"},{"internalType":"bool","name":"dateOfBirth","type":"bool"}],"internalType":"struct IdentiFi.Visibility","name":"visibility","type":"tuple"}],"stateMutability":"view","type":"function"},{"inputs":[{"internalType":"address","name":"userAddress","type":"address"}],"name":"getUsernameByAddress","outputs":[{"internalType":"string","name":"","type":"string"}],"stateMutability":"view","type":"function"},{"inputs":[{"internalType":"string","name":"username","type":"string"}],"name":"getVisibility","outputs":[{"components":[{"internalType":"bool","name":"education","type":"bool"},{"internalType":"bool","name":"workHistory","type":"bool"},{"internalType":"bool","name":"phoneNumber","type":"bool"},{"internalType":"bool","name":"homeAddress","type":"bool"},{"internalType":"bool","name":"dateOfBirth","type":"bool"}],"internalType":"struct IdentiFi.Visibility","name":"visibility","type":"tuple"}],"stateMutability":"view","type":"function"},{"inputs":[{"internalType":"string","name":"username","type":"string"},{"components":[{"internalType":"bool","name":"education","type":"bool"},{"internalType":"bool","name":"workHistory","type":"bool"},{"internalType":"bool","name":"phoneNumber","type":"bool"},{"internalType":"bool","name":"homeAddress","type":"bool"},{"internalType":"bool","name":"dateOfBirth","type":"bool"}],"internalType":"struct IdentiFi.Visibility","name":"visibility","type":"tuple"}],"name":"setVisibiliy","outputs":[],"stateMutability":"nonpayable","type":"function"}],"devdoc":{"kind":"dev","methods":{},"version":1},"evm":{"bytecode":{"linkReferences":{},"object":"608060405234801561001057600080fd5b50612c2d806100206000396000f3fe608060405234801561001057600080fd5b506004361061007d5760003560e01c80639f42af631161005b5780639f42af6314610101578063d2e49ddb14610134578063e455db8c14610150578063ed1a998d1461016c5761007d565b8063320ba8f7146100825780634b20a70f146100b257806369c212f6146100ce575b600080fd5b61009c60048036038101906100979190611c56565b61019c565b6040516100a99190611d22565b60405180910390f35b6100cc60048036038101906100c79190611dff565b6102c5565b005b6100e860048036038101906100e39190611eb9565b6103fa565b6040516100f894939291906121dd565b60405180910390f35b61011b60048036038101906101169190611c56565b6104ff565b60405161012b94939291906121dd565b60405180910390f35b61014e60048036038101906101499190612666565b610f4f565b005b61016a60048036038101906101659190612666565b61153b565b005b61018660048036038101906101819190611eb9565b6117dc565b604051610193919061279c565b60405180910390f35b6101a46118ad565b816000816040516101b591906127fa565b908152602001604051809103902060100160009054906101000a900460ff1661020a576040517ff44d230000000000000000000000000000000000000000000000000000000000815260040160405180910390fd5b60008360405161021a91906127fa565b9081526020016040518091039020600f016040518060a00160405290816000820160009054906101000a900460ff161515151581526020016000820160019054906101000a900460ff161515151581526020016000820160029054906101000a900460ff161515151581526020016000820160039054906101000a900460ff161515151581526020016000820160049054906101000a900460ff161515151581525050915050919050565b816000816040516102d691906127fa565b908152602001604051809103902060100160009054906101000a900460ff1661032b576040517ff44d230000000000000000000000000000000000000000000000000000000000815260040160405180910390fd5b6000808460405161033c91906127fa565b908152602001604051809103902090508281600f0160008201518160000160006101000a81548160ff02191690831515021790555060208201518160000160016101000a81548160ff02191690831515021790555060408201518160000160026101000a81548160ff02191690831515021790555060608201518160000160036101000a81548160ff02191690831515021790555060808201518160000160046101000a81548160ff02191690831515021790555090505050505050565b6104026118e6565b61040a61191c565b610412611952565b61041a6118ad565b6000600160008773ffffffffffffffffffffffffffffffffffffffff1673ffffffffffffffffffffffffffffffffffffffff168152602001908152602001600020805461046690612840565b80601f016020809104026020016040519081016040528092919081815260200182805461049290612840565b80156104df5780601f106104b4576101008083540402835291602001916104df565b820191906000526020600020905b8154815290600101906020018083116104c257829003601f168201915b505050505090506104ef816104ff565b9450945094509450509193509193565b6105076118e6565b61050f61191c565b610517611952565b61051f6118ad565b8460008160405161053091906127fa565b908152602001604051809103902060100160009054906101000a900460ff16610585576040517ff44d230000000000000000000000000000000000000000000000000000000000815260040160405180910390fd5b6000808760405161059691906127fa565b90815260200160405180910390209050806000016040518060c00160405290816000820180546105c590612840565b80601f01602080910402602001604051908101604052809291908181526020018280546105f190612840565b801561063e5780601f106106135761010080835404028352916020019161063e565b820191906000526020600020905b81548152906001019060200180831161062157829003601f168201915b5050505050815260200160018201805461065790612840565b80601f016020809104026020016040519081016040528092919081815260200182805461068390612840565b80156106d05780601f106106a5576101008083540402835291602001916106d0565b820191906000526020600020905b8154815290600101906020018083116106b357829003601f168201915b505050505081526020016002820180546106e990612840565b80601f016020809104026020016040519081016040528092919081815260200182805461071590612840565b80156107625780601f1061073757610100808354040283529160200191610762565b820191906000526020600020905b81548152906001019060200180831161074557829003601f168201915b5050505050815260200160038201805461077b90612840565b80601f01602080910402602001604051908101604052809291908181526020018280546107a790612840565b80156107f45780601f106107c9576101008083540402835291602001916107f4565b820191906000526020600020905b8154815290600101906020018083116107d757829003601f168201915b5050505050815260200160048201805461080d90612840565b80601f016020809104026020016040519081016040528092919081815260200182805461083990612840565b80156108865780601f1061085b57610100808354040283529160200191610886565b820191906000526020600020905b81548152906001019060200180831161086957829003601f168201915b5050505050815260200160058201805461089f90612840565b80601f01602080910402602001604051908101604052809291908181526020018280546108cb90612840565b80156109185780601f106108ed57610100808354040283529160200191610918565b820191906000526020600020905b8154815290600101906020018083116108fb57829003601f168201915b5050505050815250509550806009016040518060c001604052908160008201805461094290612840565b80601f016020809104026020016040519081016040528092919081815260200182805461096e90612840565b80156109bb5780601f10610990576101008083540402835291602001916109bb565b820191906000526020600020905b81548152906001019060200180831161099e57829003601f168201915b505050505081526020016001820180546109d490612840565b80601f0160208091040260200160405190810160405280929190818152602001828054610a0090612840565b8015610a4d5780601f10610a2257610100808354040283529160200191610a4d565b820191906000526020600020905b815481529060010190602001808311610a3057829003601f168201915b50505050508152602001600282018054610a6690612840565b80601f0160208091040260200160405190810160405280929190818152602001828054610a9290612840565b8015610adf5780601f10610ab457610100808354040283529160200191610adf565b820191906000526020600020905b815481529060010190602001808311610ac257829003601f168201915b50505050508152602001600382018054610af890612840565b80601f0160208091040260200160405190810160405280929190818152602001828054610b2490612840565b8015610b715780601f10610b4657610100808354040283529160200191610b71565b820191906000526020600020905b815481529060010190602001808311610b5457829003601f168201915b5050505050815260200160048201805480602002602001604051908101604052809291908181526020016000905b82821015610c4b578382906000526020600020018054610bbe90612840565b80601f0160208091040260200160405190810160405280929190818152602001828054610bea90612840565b8015610c375780601f10610c0c57610100808354040283529160200191610c37565b820191906000526020600020905b815481529060010190602001808311610c1a57829003601f168201915b505050505081526020019060010190610b9f565b505050508152602001600582018054610c6390612840565b80601f0160208091040260200160405190810160405280929190818152602001828054610c8f90612840565b8015610cdc5780601f10610cb157610100808354040283529160200191610cdc565b820191906000526020600020905b815481529060010190602001808311610cbf57829003601f168201915b505050505081525050945080600601604051806060016040529081600082018054610d0690612840565b80601f0160208091040260200160405190810160405280929190818152602001828054610d3290612840565b8015610d7f5780601f10610d5457610100808354040283529160200191610d7f565b820191906000526020600020905b815481529060010190602001808311610d6257829003601f168201915b50505050508152602001600182018054610d9890612840565b80601f0160208091040260200160405190810160405280929190818152602001828054610dc490612840565b8015610e115780601f10610de657610100808354040283529160200191610e11565b820191906000526020600020905b815481529060010190602001808311610df457829003601f168201915b50505050508152602001600282018054610e2a90612840565b80601f0160208091040260200160405190810160405280929190818152602001828054610e5690612840565b8015610ea35780601f10610e7857610100808354040283529160200191610ea3565b820191906000526020600020905b815481529060010190602001808311610e8657829003601f168201915b505050505081525050935080600f016040518060a00160405290816000820160009054906101000a900460ff161515151581526020016000820160019054906101000a900460ff161515151581526020016000820160029054906101000a900460ff161515151581526020016000820160039054906101000a900460ff161515151581526020016000820160049054906101000a900460ff161515151581525050925050509193509193565b84600281604051610f6091906127fa565b908152602001604051809103902060009054906101000a900460ff1615610fb3576040517f3b6d972900000000000000000000000000000000000000000000000000000000815260040160405180910390fd5b60008087604051610fc491906127fa565b9081526020016040518091039020905085816000016000820151816000019081610fee9190612a27565b5060208201518160010190816110049190612a27565b50604082015181600201908161101a9190612a27565b5060608201518160030190816110309190612a27565b5060808201518160040190816110469190612a27565b5060a082015181600501908161105c9190612a27565b509050508481600901600082015181600001908161107a9190612a27565b5060208201518160010190816110909190612a27565b5060408201518160020190816110a69190612a27565b5060608201518160030190816110bc9190612a27565b5060808201518160040190805190602001906110d9929190611973565b5060a08201518160050190816110ef9190612a27565b509050508381600601600082015181600001908161110d9190612a27565b5060208201518160010190816111239190612a27565b5060408201518160020190816111399190612a27565b509050508281600f0160008201518160000160006101000a81548160ff02191690831515021790555060208201518160000160016101000a81548160ff02191690831515021790555060408201518160000160026101000a81548160ff02191690831515021790555060608201518160000160036101000a81548160ff02191690831515021790555060808201518160000160046101000a81548160ff02191690831515021790555090505060018160100160006101000a81548160ff021916908315150217905550600160028860405161121491906127fa565b908152602001604051809103902060006101000a81548160ff02191690831515021790555086600160003373ffffffffffffffffffffffffffffffffffffffff1673ffffffffffffffffffffffffffffffffffffffff16815260200190815260200160002090816112859190612a27565b508060008860405161129791906127fa565b90815260200160405180910390206000820181600001600082018160000190816112c19190612b0f565b50600182018160010190816112d69190612b0f565b50600282018160020190816112eb9190612b0f565b50600382018160030190816113009190612b0f565b50600482018160040190816113159190612b0f565b506005820181600501908161132a9190612b0f565b5050506006820181600601600082018160000190816113499190612b0f565b506001820181600101908161135e9190612b0f565b50600282018160020190816113739190612b0f565b5050506009820181600901600082018160000190816113929190612b0f565b50600182018160010190816113a79190612b0f565b50600282018160020190816113bc9190612b0f565b50600382018160030190816113d19190612b0f565b5060048201816004019080546113e89291906119cc565b50600582018160050190816113fd9190612b0f565b505050600f820181600f016000820160009054906101000a900460ff168160000160006101000a81548160ff0219169083151502179055506000820160019054906101000a900460ff168160000160016101000a81548160ff0219169083151502179055506000820160029054906101000a900460ff168160000160026101000a81548160ff0219169083151502179055506000820160039054906101000a900460ff168160000160036101000a81548160ff0219169083151502179055506000820160049054906101000a900460ff168160000160046101000a81548160ff02191690831515021790555050506010820160009054906101000a900460ff168160100160006101000a81548160ff021916908315150217905550601182018160110190805461152e929190611a29565b5090505050505050505050565b8460008160405161154c91906127fa565b908152602001604051809103902060100160009054906101000a900460ff166115a1576040517ff44d230000000000000000000000000000000000000000000000000000000000815260040160405180910390fd5b600080876040516115b291906127fa565b90815260200160405180910390209050858160000160008201518160000190816115dc9190612a27565b5060208201518160010190816115f29190612a27565b5060408201518160020190816116089190612a27565b50606082015181600301908161161e9190612a27565b5060808201518160040190816116349190612a27565b5060a082015181600501908161164a9190612a27565b50905050848160090160008201518160000190816116689190612a27565b50602082015181600101908161167e9190612a27565b5060408201518160020190816116949190612a27565b5060608201518160030190816116aa9190612a27565b5060808201518160040190805190602001906116c7929190611973565b5060a08201518160050190816116dd9190612a27565b50905050838160060160008201518160000190816116fb9190612a27565b5060208201518160010190816117119190612a27565b5060408201518160020190816117279190612a27565b509050508281600f0160008201518160000160006101000a81548160ff02191690831515021790555060208201518160000160016101000a81548160ff02191690831515021790555060408201518160000160026101000a81548160ff02191690831515021790555060608201518160000160036101000a81548160ff02191690831515021790555060808201518160000160046101000a81548160ff02191690831515021790555090505050505050505050565b6060600160008373ffffffffffffffffffffffffffffffffffffffff1673ffffffffffffffffffffffffffffffffffffffff168152602001908152602001600020805461182890612840565b80601f016020809104026020016040519081016040528092919081815260200182805461185490612840565b80156118a15780601f10611876576101008083540402835291602001916118a1565b820191906000526020600020905b81548152906001019060200180831161188457829003601f168201915b50505050509050919050565b6040518060a001604052806000151581526020016000151581526020016000151581526020016000151581526020016000151581525090565b6040518060c001604052806060815260200160608152602001606081526020016060815260200160608152602001606081525090565b6040518060c001604052806060815260200160608152602001606081526020016060815260200160608152602001606081525090565b60405180606001604052806060815260200160608152602001606081525090565b8280548282559060005260206000209081019282156119bb579160200282015b828111156119ba5782518290816119aa9190612a27565b5091602001919060010190611993565b5b5090506119c89190611a7b565b5090565b828054828255906000526020600020908101928215611a185760005260206000209182015b82811115611a175782829081611a079190612b0f565b50916001019190600101906119f1565b5b509050611a259190611a7b565b5090565b828054828255906000526020600020908101928215611a6a5760005260206000209182015b82811115611a69578254825591600101919060010190611a4e565b5b509050611a779190611a9f565b5090565b5b80821115611a9b5760008181611a929190611abc565b50600101611a7c565b5090565b5b80821115611ab8576000816000905550600101611aa0565b5090565b508054611ac890612840565b6000825580601f10611ada5750611af9565b601f016020900490600052602060002090810190611af89190611a9f565b5b50565b6000604051905090565b600080fd5b600080fd5b600080fd5b600080fd5b6000601f19601f8301169050919050565b7f4e487b7100000000000000000000000000000000000000000000000000000000600052604160045260246000fd5b611b6382611b1a565b810181811067ffffffffffffffff82111715611b8257611b81611b2b565b5b80604052505050565b6000611b95611afc565b9050611ba18282611b5a565b919050565b600067ffffffffffffffff821115611bc157611bc0611b2b565b5b611bca82611b1a565b9050602081019050919050565b82818337600083830152505050565b6000611bf9611bf484611ba6565b611b8b565b905082815260208101848484011115611c1557611c14611b15565b5b611c20848285611bd7565b509392505050565b600082601f830112611c3d57611c3c611b10565b5b8135611c4d848260208601611be6565b91505092915050565b600060208284031215611c6c57611c6b611b06565b5b600082013567ffffffffffffffff811115611c8a57611c89611b0b565b5b611c9684828501611c28565b91505092915050565b60008115159050919050565b611cb481611c9f565b82525050565b60a082016000820151611cd06000850182611cab565b506020820151611ce36020850182611cab565b506040820151611cf66040850182611cab565b506060820151611d096060850182611cab565b506080820151611d1c6080850182611cab565b50505050565b600060a082019050611d376000830184611cba565b92915050565b600080fd5b600080fd5b611d5081611c9f565b8114611d5b57600080fd5b50565b600081359050611d6d81611d47565b92915050565b600060a08284031215611d8957611d88611d3d565b5b611d9360a0611b8b565b90506000611da384828501611d5e565b6000830152506020611db784828501611d5e565b6020830152506040611dcb84828501611d5e565b6040830152506060611ddf84828501611d5e565b6060830152506080611df384828501611d5e565b60808301525092915050565b60008060c08385031215611e1657611e15611b06565b5b600083013567ffffffffffffffff811115611e3457611e33611b0b565b5b611e4085828601611c28565b9250506020611e5185828601611d73565b9150509250929050565b600073ffffffffffffffffffffffffffffffffffffffff82169050919050565b6000611e8682611e5b565b9050919050565b611e9681611e7b565b8114611ea157600080fd5b50565b600081359050611eb381611e8d565b92915050565b600060208284031215611ecf57611ece611b06565b5b6000611edd84828501611ea4565b91505092915050565b600081519050919050565b600082825260208201905092915050565b60005b83811015611f20578082015181840152602081019050611f05565b60008484015250505050565b6000611f3782611ee6565b611f418185611ef1565b9350611f51818560208601611f02565b611f5a81611b1a565b840191505092915050565b600060c0830160008301518482036000860152611f828282611f2c565b91505060208301518482036020860152611f9c8282611f2c565b91505060408301518482036040860152611fb68282611f2c565b91505060608301518482036060860152611fd08282611f2c565b91505060808301518482036080860152611fea8282611f2c565b91505060a083015184820360a08601526120048282611f2c565b9150508091505092915050565b600081519050919050565b600082825260208201905092915050565b6000819050602082019050919050565b60006120498383611f2c565b905092915050565b6000602082019050919050565b600061206982612011565b612073818561201c565b9350836020820285016120858561202d565b8060005b858110156120c157848403895281516120a2858261203d565b94506120ad83612051565b925060208a01995050600181019050612089565b50829750879550505050505092915050565b600060c08301600083015184820360008601526120f08282611f2c565b9150506020830151848203602086015261210a8282611f2c565b915050604083015184820360408601526121248282611f2c565b9150506060830151848203606086015261213e8282611f2c565b91505060808301518482036080860152612158828261205e565b91505060a083015184820360a08601526121728282611f2c565b9150508091505092915050565b6000606083016000830151848203600086015261219c8282611f2c565b915050602083015184820360208601526121b68282611f2c565b915050604083015184820360408601526121d08282611f2c565b9150508091505092915050565b60006101008201905081810360008301526121f88187611f65565b9050818103602083015261220c81866120d3565b90508181036040830152612220818561217f565b905061222f6060830184611cba565b95945050505050565b600060c0828403121561224e5761224d611d3d565b5b61225860c0611b8b565b9050600082013567ffffffffffffffff81111561227857612277611d42565b5b61228484828501611c28565b600083015250602082013567ffffffffffffffff8111156122a8576122a7611d42565b5b6122b484828501611c28565b602083015250604082013567ffffffffffffffff8111156122d8576122d7611d42565b5b6122e484828501611c28565b604083015250606082013567ffffffffffffffff81111561230857612307611d42565b5b61231484828501611c28565b606083015250608082013567ffffffffffffffff81111561233857612337611d42565b5b61234484828501611c28565b60808301525060a082013567ffffffffffffffff81111561236857612367611d42565b5b61237484828501611c28565b60a08301525092915050565b600067ffffffffffffffff82111561239b5761239a611b2b565b5b602082029050602081019050919050565b600080fd5b60006123c46123bf84612380565b611b8b565b905080838252602082019050602084028301858111156123e7576123e66123ac565b5b835b8181101561242e57803567ffffffffffffffff81111561240c5761240b611b10565b5b8086016124198982611c28565b855260208501945050506020810190506123e9565b5050509392505050565b600082601f83011261244d5761244c611b10565b5b813561245d8482602086016123b1565b91505092915050565b600060c0828403121561247c5761247b611d3d565b5b61248660c0611b8b565b9050600082013567ffffffffffffffff8111156124a6576124a5611d42565b5b6124b284828501611c28565b600083015250602082013567ffffffffffffffff8111156124d6576124d5611d42565b5b6124e284828501611c28565b602083015250604082013567ffffffffffffffff81111561250657612505611d42565b5b61251284828501611c28565b604083015250606082013567ffffffffffffffff81111561253657612535611d42565b5b61254284828501611c28565b606083015250608082013567ffffffffffffffff81111561256657612565611d42565b5b61257284828501612438565b60808301525060a082013567ffffffffffffffff81111561259657612595611d42565b5b6125a284828501611c28565b60a08301525092915050565b6000606082840312156125c4576125c3611d3d565b5b6125ce6060611b8b565b9050600082013567ffffffffffffffff8111156125ee576125ed611d42565b5b6125fa84828501611c28565b600083015250602082013567ffffffffffffffff81111561261e5761261d611d42565b5b61262a84828501611c28565b602083015250604082013567ffffffffffffffff81111561264e5761264d611d42565b5b61265a84828501611c28565b60408301525092915050565b6000806000806000610120868803121561268357612682611b06565b5b600086013567ffffffffffffffff8111156126a1576126a0611b0b565b5b6126ad88828901611c28565b955050602086013567ffffffffffffffff8111156126ce576126cd611b0b565b5b6126da88828901612238565b945050604086013567ffffffffffffffff8111156126fb576126fa611b0b565b5b61270788828901612466565b935050606086013567ffffffffffffffff81111561272857612727611b0b565b5b612734888289016125ae565b925050608061274588828901611d73565b9150509295509295909350565b600082825260208201905092915050565b600061276e82611ee6565b6127788185612752565b9350612788818560208601611f02565b61279181611b1a565b840191505092915050565b600060208201905081810360008301526127b68184612763565b905092915050565b600081905092915050565b60006127d482611ee6565b6127de81856127be565b93506127ee818560208601611f02565b80840191505092915050565b600061280682846127c9565b915081905092915050565b7f4e487b7100000000000000000000000000000000000000000000000000000000600052602260045260246000fd5b6000600282049050600182168061285857607f821691505b60208210810361286b5761286a612811565b5b50919050565b60008190508160005260206000209050919050565b60006020601f8301049050919050565b600082821b905092915050565b6000600883026128d37fffffffffffffffffffffffffffffffffffffffffffffffffffffffffffffffff82612896565b6128dd8683612896565b95508019841693508086168417925050509392505050565b6000819050919050565b6000819050919050565b600061292461291f61291a846128f5565b6128ff565b6128f5565b9050919050565b6000819050919050565b61293e83612909565b61295261294a8261292b565b8484546128a3565b825550505050565b600090565b61296761295a565b612972818484612935565b505050565b5b818110156129965761298b60008261295f565b600181019050612978565b5050565b601f8211156129db576129ac81612871565b6129b584612886565b810160208510156129c4578190505b6129d86129d085612886565b830182612977565b50505b505050565b600082821c905092915050565b60006129fe600019846008026129e0565b1980831691505092915050565b6000612a1783836129ed565b9150826002028217905092915050565b612a3082611ee6565b67ffffffffffffffff811115612a4957612a48611b2b565b5b612a538254612840565b612a5e82828561299a565b600060209050601f831160018114612a915760008415612a7f578287015190505b612a898582612a0b565b865550612af1565b601f198416612a9f86612871565b60005b82811015612ac757848901518255600182019150602085019450602081019050612aa2565b86831015612ae45784890151612ae0601f8916826129ed565b8355505b6001600288020188555050505b505050505050565b600081549050612b0881612840565b9050919050565b818103612b1d575050612bf5565b612b2682612af9565b67ffffffffffffffff811115612b3f57612b3e611b2b565b5b612b498254612840565b612b5482828561299a565b6000601f831160018114612b835760008415612b71578287015490505b612b7b8582612a0b565b865550612bee565b601f198416612b9187612871565b9650612b9c86612871565b60005b82811015612bc457848901548255600182019150600185019450602081019050612b9f565b86831015612be15784890154612bdd601f8916826129ed565b8355505b6001600288020188555050505b5050505050505b56fea2646970667358221220a28df5b536776e8773706cb62f87d45268ae77e888affb6b28d1b478b446d52f64736f6c63430008180033","opcodes":"PUSH1 0x80 PUSH1 0x40 MSTORE CALLVALUE DUP1 ISZERO PUSH2 0x10 JUMPI PUSH1 0x0 DUP1 REVERT JUMPDEST POP PUSH2 0x2C2D DUP1 PUSH2 0x20 PUSH1 0x0 CODECOPY PUSH1 0x0 RETURN INVALID PUSH1 0x80 PUSH1 0x40 MSTORE CALLVALUE DUP1 ISZERO PUSH2 0x10 JUMPI PUSH1 0x0 DUP1 REVERT JUMPDEST POP PUSH1 0x4 CALLDATASIZE LT PUSH2 0x7D JUMPI PUSH1 0x0 CALLDATALOAD PUSH1 0xE0 SHR DUP1 PUSH4 0x9F42AF63 GT PUSH2 0x5B JUMPI DUP1 PUSH4 0x9F42AF63 EQ PUSH2 0x101 JUMPI DUP1 PUSH4 0xD2E49DDB EQ PUSH2 0x134 JUMPI DUP1 PUSH4 0xE455DB8C EQ PUSH2 0x150 JUMPI DUP1 PUSH4 0xED1A998D EQ PUSH2 0x16C JUMPI PUSH2 0x7D JUMP JUMPDEST DUP1 PUSH4 0x320BA8F7 EQ PUSH2 0x82 JUMPI DUP1 PUSH4 0x4B20A70F EQ PUSH2 0xB2 JUMPI DUP1 PUSH4 0x69C212F6 EQ PUSH2 0xCE JUMPI JUMPDEST PUSH1 0x0 DUP1 REVERT JUMPDEST PUSH2 0x9C PUSH1 0x4 DUP1 CALLDATASIZE SUB DUP2 ADD SWAP1 PUSH2 0x97 SWAP2 SWAP1 PUSH2 0x1C56 JUMP JUMPDEST PUSH2 0x19C JUMP JUMPDEST PUSH1 0x40 MLOAD PUSH2 0xA9 SWAP2 SWAP1 PUSH2 0x1D22 JUMP JUMPDEST PUSH1 0x40 MLOAD DUP1 SWAP2 SUB SWAP1 RETURN JUMPDEST PUSH2 0xCC PUSH1 0x4 DUP1 CALLDATASIZE SUB DUP2 ADD SWAP1 PUSH2 0xC7 SWAP2 SWAP1 PUSH2 0x1DFF JUMP JUMPDEST PUSH2 0x2C5 JUMP JUMPDEST STOP JUMPDEST PUSH2 0xE8 PUSH1 0x4 DUP1 CALLDATASIZE SUB DUP2 ADD SWAP1 PUSH2 0xE3 SWAP2 SWAP1 PUSH2 0x1EB9 JUMP JUMPDEST PUSH2 0x3FA JUMP JUMPDEST PUSH1 0x40 MLOAD PUSH2 0xF8 SWAP5 SWAP4 SWAP3 SWAP2 SWAP1 PUSH2 0x21DD JUMP JUMPDEST PUSH1 0x40 MLOAD DUP1 SWAP2 SUB SWAP1 RETURN JUMPDEST PUSH2 0x11B PUSH1 0x4 DUP1 CALLDATASIZE SUB DUP2 ADD SWAP1 PUSH2 0x116 SWAP2 SWAP1 PUSH2 0x1C56 JUMP JUMPDEST PUSH2 0x4FF JUMP JUMPDEST PUSH1 0x40 MLOAD PUSH2 0x12B SWAP5 SWAP4 SWAP3 SWAP2 SWAP1 PUSH2 0x21DD JUMP JUMPDEST PUSH1 0x40 MLOAD DUP1 SWAP2 SUB SWAP1 RETURN JUMPDEST PUSH2 0x14E PUSH1 0x4 DUP1 CALLDATASIZE SUB DUP2 ADD SWAP1 PUSH2 0x149 SWAP2 SWAP1 PUSH2 0x2666 JUMP JUMPDEST PUSH2 0xF4F JUMP JUMPDEST STOP JUMPDEST PUSH2 0x16A PUSH1 0x4 DUP1 CALLDATASIZE SUB DUP2 ADD SWAP1 PUSH2 0x165 SWAP2 SWAP1 PUSH2 0x2666 JUMP JUMPDEST PUSH2 0x153B JUMP JUMPDEST STOP JUMPDEST PUSH2 0x186 PUSH1 0x4 DUP1 CALLDATASIZE SUB DUP2 ADD SWAP1 PUSH2 0x181 SWAP2 SWAP1 PUSH2 0x1EB9 JUMP JUMPDEST PUSH2 0x17DC JUMP JUMPDEST PUSH1 0x40 MLOAD PUSH2 0x193 SWAP2 SWAP1 PUSH2 0x279C JUMP JUMPDEST PUSH1 0x40 MLOAD DUP1 SWAP2 SUB SWAP1 RETURN JUMPDEST PUSH2 0x1A4 PUSH2 0x18AD JUMP JUMPDEST DUP2 PUSH1 0x0 DUP2 PUSH1 0x40 MLOAD PUSH2 0x1B5 SWAP2 SWAP1 PUSH2 0x27FA JUMP JUMPDEST SWAP1 DUP2 MSTORE PUSH1 0x20 ADD PUSH1 0x40 MLOAD DUP1 SWAP2 SUB SWAP1 KECCAK256 PUSH1 0x10 ADD PUSH1 0x0 SWAP1 SLOAD SWAP1 PUSH2 0x100 EXP SWAP1 DIV PUSH1 0xFF AND PUSH2 0x20A JUMPI PUSH1 0x40 MLOAD PUSH32 0xF44D230000000000000000000000000000000000000000000000000000000000 DUP2 MSTORE PUSH1 0x4 ADD PUSH1 0x40 MLOAD DUP1 SWAP2 SUB SWAP1 REVERT JUMPDEST PUSH1 0x0 DUP4 PUSH1 0x40 MLOAD PUSH2 0x21A SWAP2 SWAP1 PUSH2 0x27FA JUMP JUMPDEST SWAP1 DUP2 MSTORE PUSH1 0x20 ADD PUSH1 0x40 MLOAD DUP1 SWAP2 SUB SWAP1 KECCAK256 PUSH1 0xF ADD PUSH1 0x40 MLOAD DUP1 PUSH1 0xA0 ADD PUSH1 0x40 MSTORE SWAP1 DUP2 PUSH1 0x0 DUP3 ADD PUSH1 0x0 SWAP1 SLOAD SWAP1 PUSH2 0x100 EXP SWAP1 DIV PUSH1 0xFF AND ISZERO ISZERO ISZERO ISZERO DUP2 MSTORE PUSH1 0x20 ADD PUSH1 0x0 DUP3 ADD PUSH1 0x1 SWAP1 SLOAD SWAP1 PUSH2 0x100 EXP SWAP1 DIV PUSH1 0xFF AND ISZERO ISZERO ISZERO ISZERO DUP2 MSTORE PUSH1 0x20 ADD PUSH1 0x0 DUP3 ADD PUSH1 0x2 SWAP1 SLOAD SWAP1 PUSH2 0x100 EXP SWAP1 DIV PUSH1 0xFF AND ISZERO ISZERO ISZERO ISZERO DUP2 MSTORE PUSH1 0x20 ADD PUSH1 0x0 DUP3 ADD PUSH1 0x3 SWAP1 SLOAD SWAP1 PUSH2 0x100 EXP SWAP1 DIV PUSH1 0xFF AND ISZERO ISZERO ISZERO ISZERO DUP2 MSTORE PUSH1 0x20 ADD PUSH1 0x0 DUP3 ADD PUSH1 0x4 SWAP1 SLOAD SWAP1 PUSH2 0x100 EXP SWAP1 DIV PUSH1 0xFF AND ISZERO ISZERO ISZERO ISZERO DUP2 MSTORE POP POP SWAP2 POP POP SWAP2 SWAP1 POP JUMP JUMPDEST DUP2 PUSH1 0x0 DUP2 PUSH1 0x40 MLOAD PUSH2 0x2D6 SWAP2 SWAP1 PUSH2 0x27FA JUMP JUMPDEST SWAP1 DUP2 MSTORE PUSH1 0x20 ADD PUSH1 0x40 MLOAD DUP1 SWAP2 SUB SWAP1 KECCAK256 PUSH1 0x10 ADD PUSH1 0x0 SWAP1 SLOAD SWAP1 PUSH2 0x100 EXP SWAP1 DIV PUSH1 0xFF AND PUSH2 0x32B JUMPI PUSH1 0x40 MLOAD PUSH32 0xF44D230000000000000000000000000000000000000000000000000000000000 DUP2 MSTORE PUSH1 0x4 ADD PUSH1 0x40 MLOAD DUP1 SWAP2 SUB SWAP1 REVERT JUMPDEST PUSH1 0x0 DUP1 DUP5 PUSH1 0x40 MLOAD PUSH2 0x33C SWAP2 SWAP1 PUSH2 0x27FA JUMP JUMPDEST SWAP1 DUP2 MSTORE PUSH1 0x20 ADD PUSH1 0x40 MLOAD DUP1 SWAP2 SUB SWAP1 KECCAK256 SWAP1 POP DUP3 DUP2 PUSH1 0xF ADD PUSH1 0x0 DUP3 ADD MLOAD DUP2 PUSH1 0x0 ADD PUSH1 0x0 PUSH2 0x100 EXP DUP2 SLOAD DUP2 PUSH1 0xFF MUL NOT AND SWAP1 DUP4 ISZERO ISZERO MUL OR SWAP1 SSTORE POP PUSH1 0x20 DUP3 ADD MLOAD DUP2 PUSH1 0x0 ADD PUSH1 0x1 PUSH2 0x100 EXP DUP2 SLOAD DUP2 PUSH1 0xFF MUL NOT AND SWAP1 DUP4 ISZERO ISZERO MUL OR SWAP1 SSTORE POP PUSH1 0x40 DUP3 ADD MLOAD DUP2 PUSH1 0x0 ADD PUSH1 0x2 PUSH2 0x100 EXP DUP2 SLOAD DUP2 PUSH1 0xFF MUL NOT AND SWAP1 DUP4 ISZERO ISZERO MUL OR SWAP1 SSTORE POP PUSH1 0x60 DUP3 ADD MLOAD DUP2 PUSH1 0x0 ADD PUSH1 0x3 PUSH2 0x100 EXP DUP2 SLOAD DUP2 PUSH1 0xFF MUL NOT AND SWAP1 DUP4 ISZERO ISZERO MUL OR SWAP1 SSTORE POP PUSH1 0x80 DUP3 ADD MLOAD DUP2 PUSH1 0x0 ADD PUSH1 0x4 PUSH2 0x100 EXP DUP2 SLOAD DUP2 PUSH1 0xFF MUL NOT AND SWAP1 DUP4 ISZERO ISZERO MUL OR SWAP1 SSTORE POP SWAP1 POP POP POP POP POP POP JUMP JUMPDEST PUSH2 0x402 PUSH2 0x18E6 JUMP JUMPDEST PUSH2 0x40A PUSH2 0x191C JUMP JUMPDEST PUSH2 0x412 PUSH2 0x1952 JUMP JUMPDEST PUSH2 0x41A PUSH2 0x18AD JUMP JUMPDEST PUSH1 0x0 PUSH1 0x1 PUSH1 0x0 DUP8 PUSH20 0xFFFFFFFFFFFFFFFFFFFFFFFFFFFFFFFFFFFFFFFF AND PUSH20 0xFFFFFFFFFFFFFFFFFFFFFFFFFFFFFFFFFFFFFFFF AND DUP2 MSTORE PUSH1 0x20 ADD SWAP1 DUP2 MSTORE PUSH1 0x20 ADD PUSH1 0x0 KECCAK256 DUP1 SLOAD PUSH2 0x466 SWAP1 PUSH2 0x2840 JUMP JUMPDEST DUP1 PUSH1 0x1F ADD PUSH1 0x20 DUP1 SWAP2 DIV MUL PUSH1 0x20 ADD PUSH1 0x40 MLOAD SWAP1 DUP2 ADD PUSH1 0x40 MSTORE DUP1 SWAP3 SWAP2 SWAP1 DUP2 DUP2 MSTORE PUSH1 0x20 ADD DUP3 DUP1 SLOAD PUSH2 0x492 SWAP1 PUSH2 0x2840 JUMP JUMPDEST DUP1 ISZERO PUSH2 0x4DF JUMPI DUP1 PUSH1 0x1F LT PUSH2 0x4B4 JUMPI PUSH2 0x100 DUP1 DUP4 SLOAD DIV MUL DUP4 MSTORE SWAP2 PUSH1 0x20 ADD SWAP2 PUSH2 0x4DF JUMP JUMPDEST DUP3 ADD SWAP2 SWAP1 PUSH1 0x0 MSTORE PUSH1 0x20 PUSH1 0x0 KECCAK256 SWAP1 JUMPDEST DUP2 SLOAD DUP2 MSTORE SWAP1 PUSH1 0x1 ADD SWAP1 PUSH1 0x20 ADD DUP1 DUP4 GT PUSH2 0x4C2 JUMPI DUP3 SWAP1 SUB PUSH1 0x1F AND DUP3 ADD SWAP2 JUMPDEST POP POP POP POP POP SWAP1 POP PUSH2 0x4EF DUP2 PUSH2 0x4FF JUMP JUMPDEST SWAP5 POP SWAP5 POP SWAP5 POP SWAP5 POP POP SWAP2 SWAP4 POP SWAP2 SWAP4 JUMP JUMPDEST PUSH2 0x507 PUSH2 0x18E6 JUMP JUMPDEST PUSH2 0x50F PUSH2 0x191C JUMP JUMPDEST PUSH2 0x517 PUSH2 0x1952 JUMP JUMPDEST PUSH2 0x51F PUSH2 0x18AD JUMP JUMPDEST DUP5 PUSH1 0x0 DUP2 PUSH1 0x40 MLOAD PUSH2 0x530 SWAP2 SWAP1 PUSH2 0x27FA JUMP JUMPDEST SWAP1 DUP2 MSTORE PUSH1 0x20 ADD PUSH1 0x40 MLOAD DUP1 SWAP2 SUB SWAP1 KECCAK256 PUSH1 0x10 ADD PUSH1 0x0 SWAP1 SLOAD SWAP1 PUSH2 0x100 EXP SWAP1 DIV PUSH1 0xFF AND PUSH2 0x585 JUMPI PUSH1 0x40 MLOAD PUSH32 0xF44D230000000000000000000000000000000000000000000000000000000000 DUP2 MSTORE PUSH1 0x4 ADD PUSH1 0x40 MLOAD DUP1 SWAP2 SUB SWAP1 REVERT JUMPDEST PUSH1 0x0 DUP1 DUP8 PUSH1 0x40 MLOAD PUSH2 0x596 SWAP2 SWAP1 PUSH2 0x27FA JUMP JUMPDEST SWAP1 DUP2 MSTORE PUSH1 0x20 ADD PUSH1 0x40 MLOAD DUP1 SWAP2 SUB SWAP1 KECCAK256 SWAP1 POP DUP1 PUSH1 0x0 ADD PUSH1 0x40 MLOAD DUP1 PUSH1 0xC0 ADD PUSH1 0x40 MSTORE SWAP1 DUP2 PUSH1 0x0 DUP3 ADD DUP1 SLOAD PUSH2 0x5C5 SWAP1 PUSH2 0x2840 JUMP JUMPDEST DUP1 PUSH1 0x1F ADD PUSH1 0x20 DUP1 SWAP2 DIV MUL PUSH1 0x20 ADD PUSH1 0x40 MLOAD SWAP1 DUP2 ADD PUSH1 0x40 MSTORE DUP1 SWAP3 SWAP2 SWAP1 DUP2 DUP2 MSTORE PUSH1 0x20 ADD DUP3 DUP1 SLOAD PUSH2 0x5F1 SWAP1 PUSH2 0x2840 JUMP JUMPDEST DUP1 ISZERO PUSH2 0x63E JUMPI DUP1 PUSH1 0x1F LT PUSH2 0x613 JUMPI PUSH2 0x100 DUP1 DUP4 SLOAD DIV MUL DUP4 MSTORE SWAP2 PUSH1 0x20 ADD SWAP2 PUSH2 0x63E JUMP JUMPDEST DUP3 ADD SWAP2 SWAP1 PUSH1 0x0 MSTORE PUSH1 0x20 PUSH1 0x0 KECCAK256 SWAP1 JUMPDEST DUP2 SLOAD DUP2 MSTORE SWAP1 PUSH1 0x1 ADD SWAP1 PUSH1 0x20 ADD DUP1 DUP4 GT PUSH2 0x621 JUMPI DUP3 SWAP1 SUB PUSH1 0x1F AND DUP3 ADD SWAP2 JUMPDEST POP POP POP POP POP DUP2 MSTORE PUSH1 0x20 ADD PUSH1 0x1 DUP3 ADD DUP1 SLOAD PUSH2 0x657 SWAP1 PUSH2 0x2840 JUMP JUMPDEST DUP1 PUSH1 0x1F ADD PUSH1 0x20 DUP1 SWAP2 DIV MUL PUSH1 0x20 ADD PUSH1 0x40 MLOAD SWAP1 DUP2 ADD PUSH1 0x40 MSTORE DUP1 SWAP3 SWAP2 SWAP1 DUP2 DUP2 MSTORE PUSH1 0x20 ADD DUP3 DUP1 SLOAD PUSH2 0x683 SWAP1 PUSH2 0x2840 JUMP JUMPDEST DUP1 ISZERO PUSH2 0x6D0 JUMPI DUP1 PUSH1 0x1F LT PUSH2 0x6A5 JUMPI PUSH2 0x100 DUP1 DUP4 SLOAD DIV MUL DUP4 MSTORE SWAP2 PUSH1 0x20 ADD SWAP2 PUSH2 0x6D0 JUMP JUMPDEST DUP3 ADD SWAP2 SWAP1 PUSH1 0x0 MSTORE PUSH1 0x20 PUSH1 0x0 KECCAK256 SWAP1 JUMPDEST DUP2 SLOAD DUP2 MSTORE SWAP1 PUSH1 0x1 ADD SWAP1 PUSH1 0x20 ADD DUP1 DUP4 GT PUSH2 0x6B3 JUMPI DUP3 SWAP1 SUB PUSH1 0x1F AND DUP3 ADD SWAP2 JUMPDEST POP POP POP POP POP DUP2 MSTORE PUSH1 0x20 ADD PUSH1 0x2 DUP3 ADD DUP1 SLOAD PUSH2 0x6E9 SWAP1 PUSH2 0x2840 JUMP JUMPDEST DUP1 PUSH1 0x1F ADD PUSH1 0x20 DUP1 SWAP2 DIV MUL PUSH1 0x20 ADD PUSH1 0x40 MLOAD SWAP1 DUP2 ADD PUSH1 0x40 MSTORE DUP1 SWAP3 SWAP2 SWAP1 DUP2 DUP2 MSTORE PUSH1 0x20 ADD DUP3 DUP1 SLOAD PUSH2 0x715 SWAP1 PUSH2 0x2840 JUMP JUMPDEST DUP1 ISZERO PUSH2 0x762 JUMPI DUP1 PUSH1 0x1F LT PUSH2 0x737 JUMPI PUSH2 0x100 DUP1 DUP4 SLOAD DIV MUL DUP4 MSTORE SWAP2 PUSH1 0x20 ADD SWAP2 PUSH2 0x762 JUMP JUMPDEST DUP3 ADD SWAP2 SWAP1 PUSH1 0x0 MSTORE PUSH1 0x20 PUSH1 0x0 KECCAK256 SWAP1 JUMPDEST DUP2 SLOAD DUP2 MSTORE SWAP1 PUSH1 0x1 ADD SWAP1 PUSH1 0x20 ADD DUP1 DUP4 GT PUSH2 0x745 JUMPI DUP3 SWAP1 SUB PUSH1 0x1F AND DUP3 ADD SWAP2 JUMPDEST POP POP POP POP POP DUP2 MSTORE PUSH1 0x20 ADD PUSH1 0x3 DUP3 ADD DUP1 SLOAD PUSH2 0x77B SWAP1 PUSH2 0x2840 JUMP JUMPDEST DUP1 PUSH1 0x1F ADD PUSH1 0x20 DUP1 SWAP2 DIV MUL PUSH1 0x20 ADD PUSH1 0x40 MLOAD SWAP1 DUP2 ADD PUSH1 0x40 MSTORE DUP1 SWAP3 SWAP2 SWAP1 DUP2 DUP2 MSTORE PUSH1 0x20 ADD DUP3 DUP1 SLOAD PUSH2 0x7A7 SWAP1 PUSH2 0x2840 JUMP JUMPDEST DUP1 ISZERO PUSH2 0x7F4 JUMPI DUP1 PUSH1 0x1F LT PUSH2 0x7C9 JUMPI PUSH2 0x100 DUP1 DUP4 SLOAD DIV MUL DUP4 MSTORE SWAP2 PUSH1 0x20 ADD SWAP2 PUSH2 0x7F4 JUMP JUMPDEST DUP3 ADD SWAP2 SWAP1 PUSH1 0x0 MSTORE PUSH1 0x20 PUSH1 0x0 KECCAK256 SWAP1 JUMPDEST DUP2 SLOAD DUP2 MSTORE SWAP1 PUSH1 0x1 ADD SWAP1 PUSH1 0x20 ADD DUP1 DUP4 GT PUSH2 0x7D7 JUMPI DUP3 SWAP1 SUB PUSH1 0x1F AND DUP3 ADD SWAP2 JUMPDEST POP POP POP POP POP DUP2 MSTORE PUSH1 0x20 ADD PUSH1 0x4 DUP3 ADD DUP1 SLOAD PUSH2 0x80D SWAP1 PUSH2 0x2840 JUMP JUMPDEST DUP1 PUSH1 0x1F ADD PUSH1 0x20 DUP1 SWAP2 DIV MUL PUSH1 0x20 ADD PUSH1 0x40 MLOAD SWAP1 DUP2 ADD PUSH1 0x40 MSTORE DUP1 SWAP3 SWAP2 SWAP1 DUP2 DUP2 MSTORE PUSH1 0x20 ADD DUP3 DUP1 SLOAD PUSH2 0x839 SWAP1 PUSH2 0x2840 JUMP JUMPDEST DUP1 ISZERO PUSH2 0x886 JUMPI DUP1 PUSH1 0x1F LT PUSH2 0x85B JUMPI PUSH2 0x100 DUP1 DUP4 SLOAD DIV MUL DUP4 MSTORE SWAP2 PUSH1 0x20 ADD SWAP2 PUSH2 0x886 JUMP JUMPDEST DUP3 ADD SWAP2 SWAP1 PUSH1 0x0 MSTORE PUSH1 0x20 PUSH1 0x0 KECCAK256 SWAP1 JUMPDEST DUP2 SLOAD DUP2 MSTORE SWAP1 PUSH1 0x1 ADD SWAP1 PUSH1 0x20 ADD DUP1 DUP4 GT PUSH2 0x869 JUMPI DUP3 SWAP1 SUB PUSH1 0x1F AND DUP3 ADD SWAP2 JUMPDEST POP POP POP POP POP DUP2 MSTORE PUSH1 0x20 ADD PUSH1 0x5 DUP3 ADD DUP1 SLOAD PUSH2 0x89F SWAP1 PUSH2 0x2840 JUMP JUMPDEST DUP1 PUSH1 0x1F ADD PUSH1 0x20 DUP1 SWAP2 DIV MUL PUSH1 0x20 ADD PUSH1 0x40 MLOAD SWAP1 DUP2 ADD PUSH1 0x40 MSTORE DUP1 SWAP3 SWAP2 SWAP1 DUP2 DUP2 MSTORE PUSH1 0x20 ADD DUP3 DUP1 SLOAD PUSH2 0x8CB SWAP1 PUSH2 0x2840 JUMP JUMPDEST DUP1 ISZERO PUSH2 0x918 JUMPI DUP1 PUSH1 0x1F LT PUSH2 0x8ED JUMPI PUSH2 0x100 DUP1 DUP4 SLOAD DIV MUL DUP4 MSTORE SWAP2 PUSH1 0x20 ADD SWAP2 PUSH2 0x918 JUMP JUMPDEST DUP3 ADD SWAP2 SWAP1 PUSH1 0x0 MSTORE PUSH1 0x20 PUSH1 0x0 KECCAK256 SWAP1 JUMPDEST DUP2 SLOAD DUP2 MSTORE SWAP1 PUSH1 0x1 ADD SWAP1 PUSH1 0x20 ADD DUP1 DUP4 GT PUSH2 0x8FB JUMPI DUP3 SWAP1 SUB PUSH1 0x1F AND DUP3 ADD SWAP2 JUMPDEST POP POP POP POP POP DUP2 MSTORE POP POP SWAP6 POP DUP1 PUSH1 0x9 ADD PUSH1 0x40 MLOAD DUP1 PUSH1 0xC0 ADD PUSH1 0x40 MSTORE SWAP1 DUP2 PUSH1 0x0 DUP3 ADD DUP1 SLOAD PUSH2 0x942 SWAP1 PUSH2 0x2840 JUMP JUMPDEST DUP1 PUSH1 0x1F ADD PUSH1 0x20 DUP1 SWAP2 DIV MUL PUSH1 0x20 ADD PUSH1 0x40 MLOAD SWAP1 DUP2 ADD PUSH1 0x40 MSTORE DUP1 SWAP3 SWAP2 SWAP1 DUP2 DUP2 MSTORE PUSH1 0x20 ADD DUP3 DUP1 SLOAD PUSH2 0x96E SWAP1 PUSH2 0x2840 JUMP JUMPDEST DUP1 ISZERO PUSH2 0x9BB JUMPI DUP1 PUSH1 0x1F LT PUSH2 0x990 JUMPI PUSH2 0x100 DUP1 DUP4 SLOAD DIV MUL DUP4 MSTORE SWAP2 PUSH1 0x20 ADD SWAP2 PUSH2 0x9BB JUMP JUMPDEST DUP3 ADD SWAP2 SWAP1 PUSH1 0x0 MSTORE PUSH1 0x20 PUSH1 0x0 KECCAK256 SWAP1 JUMPDEST DUP2 SLOAD DUP2 MSTORE SWAP1 PUSH1 0x1 ADD SWAP1 PUSH1 0x20 ADD DUP1 DUP4 GT PUSH2 0x99E JUMPI DUP3 SWAP1 SUB PUSH1 0x1F AND DUP3 ADD SWAP2 JUMPDEST POP POP POP POP POP DUP2 MSTORE PUSH1 0x20 ADD PUSH1 0x1 DUP3 ADD DUP1 SLOAD PUSH2 0x9D4 SWAP1 PUSH2 0x2840 JUMP JUMPDEST DUP1 PUSH1 0x1F ADD PUSH1 0x20 DUP1 SWAP2 DIV MUL PUSH1 0x20 ADD PUSH1 0x40 MLOAD SWAP1 DUP2 ADD PUSH1 0x40 MSTORE DUP1 SWAP3 SWAP2 SWAP1 DUP2 DUP2 MSTORE PUSH1 0x20 ADD DUP3 DUP1 SLOAD PUSH2 0xA00 SWAP1 PUSH2 0x2840 JUMP JUMPDEST DUP1 ISZERO PUSH2 0xA4D JUMPI DUP1 PUSH1 0x1F LT PUSH2 0xA22 JUMPI PUSH2 0x100 DUP1 DUP4 SLOAD DIV MUL DUP4 MSTORE SWAP2 PUSH1 0x20 ADD SWAP2 PUSH2 0xA4D JUMP JUMPDEST DUP3 ADD SWAP2 SWAP1 PUSH1 0x0 MSTORE PUSH1 0x20 PUSH1 0x0 KECCAK256 SWAP1 JUMPDEST DUP2 SLOAD DUP2 MSTORE SWAP1 PUSH1 0x1 ADD SWAP1 PUSH1 0x20 ADD DUP1 DUP4 GT PUSH2 0xA30 JUMPI DUP3 SWAP1 SUB PUSH1 0x1F AND DUP3 ADD SWAP2 JUMPDEST POP POP POP POP POP DUP2 MSTORE PUSH1 0x20 ADD PUSH1 0x2 DUP3 ADD DUP1 SLOAD PUSH2 0xA66 SWAP1 PUSH2 0x2840 JUMP JUMPDEST DUP1 PUSH1 0x1F ADD PUSH1 0x20 DUP1 SWAP2 DIV MUL PUSH1 0x20 ADD PUSH1 0x40 MLOAD SWAP1 DUP2 ADD PUSH1 0x40 MSTORE DUP1 SWAP3 SWAP2 SWAP1 DUP2 DUP2 MSTORE PUSH1 0x20 ADD DUP3 DUP1 SLOAD PUSH2 0xA92 SWAP1 PUSH2 0x2840 JUMP JUMPDEST DUP1 ISZERO PUSH2 0xADF JUMPI DUP1 PUSH1 0x1F LT PUSH2 0xAB4 JUMPI PUSH2 0x100 DUP1 DUP4 SLOAD DIV MUL DUP4 MSTORE SWAP2 PUSH1 0x20 ADD SWAP2 PUSH2 0xADF JUMP JUMPDEST DUP3 ADD SWAP2 SWAP1 PUSH1 0x0 MSTORE PUSH1 0x20 PUSH1 0x0 KECCAK256 SWAP1 JUMPDEST DUP2 SLOAD DUP2 MSTORE SWAP1 PUSH1 0x1 ADD SWAP1 PUSH1 0x20 ADD DUP1 DUP4 GT PUSH2 0xAC2 JUMPI DUP3 SWAP1 SUB PUSH1 0x1F AND DUP3 ADD SWAP2 JUMPDEST POP POP POP POP POP DUP2 MSTORE PUSH1 0x20 ADD PUSH1 0x3 DUP3 ADD DUP1 SLOAD PUSH2 0xAF8 SWAP1 PUSH2 0x2840 JUMP JUMPDEST DUP1 PUSH1 0x1F ADD PUSH1 0x20 DUP1 SWAP2 DIV MUL PUSH1 0x20 ADD PUSH1 0x40 MLOAD SWAP1 DUP2 ADD PUSH1 0x40 MSTORE DUP1 SWAP3 SWAP2 SWAP1 DUP2 DUP2 MSTORE PUSH1 0x20 ADD DUP3 DUP1 SLOAD PUSH2 0xB24 SWAP1 PUSH2 0x2840 JUMP JUMPDEST DUP1 ISZERO PUSH2 0xB71 JUMPI DUP1 PUSH1 0x1F LT PUSH2 0xB46 JUMPI PUSH2 0x100 DUP1 DUP4 SLOAD DIV MUL DUP4 MSTORE SWAP2 PUSH1 0x20 ADD SWAP2 PUSH2 0xB71 JUMP JUMPDEST DUP3 ADD SWAP2 SWAP1 PUSH1 0x0 MSTORE PUSH1 0x20 PUSH1 0x0 KECCAK256 SWAP1 JUMPDEST DUP2 SLOAD DUP2 MSTORE SWAP1 PUSH1 0x1 ADD SWAP1 PUSH1 0x20 ADD DUP1 DUP4 GT PUSH2 0xB54 JUMPI DUP3 SWAP1 SUB PUSH1 0x1F AND DUP3 ADD SWAP2 JUMPDEST POP POP POP POP POP DUP2 MSTORE PUSH1 0x20 ADD PUSH1 0x4 DUP3 ADD DUP1 SLOAD DUP1 PUSH1 0x20 MUL PUSH1 0x20 ADD PUSH1 0x40 MLOAD SWAP1 DUP2 ADD PUSH1 0x40 MSTORE DUP1 SWAP3 SWAP2 SWAP1 DUP2 DUP2 MSTORE PUSH1 0x20 ADD PUSH1 0x0 SWAP1 JUMPDEST DUP3 DUP3 LT ISZERO PUSH2 0xC4B JUMPI DUP4 DUP3 SWAP1 PUSH1 0x0 MSTORE PUSH1 0x20 PUSH1 0x0 KECCAK256 ADD DUP1 SLOAD PUSH2 0xBBE SWAP1 PUSH2 0x2840 JUMP JUMPDEST DUP1 PUSH1 0x1F ADD PUSH1 0x20 DUP1 SWAP2 DIV MUL PUSH1 0x20 ADD PUSH1 0x40 MLOAD SWAP1 DUP2 ADD PUSH1 0x40 MSTORE DUP1 SWAP3 SWAP2 SWAP1 DUP2 DUP2 MSTORE PUSH1 0x20 ADD DUP3 DUP1 SLOAD PUSH2 0xBEA SWAP1 PUSH2 0x2840 JUMP JUMPDEST DUP1 ISZERO PUSH2 0xC37 JUMPI DUP1 PUSH1 0x1F LT PUSH2 0xC0C JUMPI PUSH2 0x100 DUP1 DUP4 SLOAD DIV MUL DUP4 MSTORE SWAP2 PUSH1 0x20 ADD SWAP2 PUSH2 0xC37 JUMP JUMPDEST DUP3 ADD SWAP2 SWAP1 PUSH1 0x0 MSTORE PUSH1 0x20 PUSH1 0x0 KECCAK256 SWAP1 JUMPDEST DUP2 SLOAD DUP2 MSTORE SWAP1 PUSH1 0x1 ADD SWAP1 PUSH1 0x20 ADD DUP1 DUP4 GT PUSH2 0xC1A JUMPI DUP3 SWAP1 SUB PUSH1 0x1F AND DUP3 ADD SWAP2 JUMPDEST POP POP POP POP POP DUP2 MSTORE PUSH1 0x20 ADD SWAP1 PUSH1 0x1 ADD SWAP1 PUSH2 0xB9F JUMP JUMPDEST POP POP POP POP DUP2 MSTORE PUSH1 0x20 ADD PUSH1 0x5 DUP3 ADD DUP1 SLOAD PUSH2 0xC63 SWAP1 PUSH2 0x2840 JUMP JUMPDEST DUP1 PUSH1 0x1F ADD PUSH1 0x20 DUP1 SWAP2 DIV MUL PUSH1 0x20 ADD PUSH1 0x40 MLOAD SWAP1 DUP2 ADD PUSH1 0x40 MSTORE DUP1 SWAP3 SWAP2 SWAP1 DUP2 DUP2 MSTORE PUSH1 0x20 ADD DUP3 DUP1 SLOAD PUSH2 0xC8F SWAP1 PUSH2 0x2840 JUMP JUMPDEST DUP1 ISZERO PUSH2 0xCDC JUMPI DUP1 PUSH1 0x1F LT PUSH2 0xCB1 JUMPI PUSH2 0x100 DUP1 DUP4 SLOAD DIV MUL DUP4 MSTORE SWAP2 PUSH1 0x20 ADD SWAP2 PUSH2 0xCDC JUMP JUMPDEST DUP3 ADD SWAP2 SWAP1 PUSH1 0x0 MSTORE PUSH1 0x20 PUSH1 0x0 KECCAK256 SWAP1 JUMPDEST DUP2 SLOAD DUP2 MSTORE SWAP1 PUSH1 0x1 ADD SWAP1 PUSH1 0x20 ADD DUP1 DUP4 GT PUSH2 0xCBF JUMPI DUP3 SWAP1 SUB PUSH1 0x1F AND DUP3 ADD SWAP2 JUMPDEST POP POP POP POP POP DUP2 MSTORE POP POP SWAP5 POP DUP1 PUSH1 0x6 ADD PUSH1 0x40 MLOAD DUP1 PUSH1 0x60 ADD PUSH1 0x40 MSTORE SWAP1 DUP2 PUSH1 0x0 DUP3 ADD DUP1 SLOAD PUSH2 0xD06 SWAP1 PUSH2 0x2840 JUMP JUMPDEST DUP1 PUSH1 0x1F ADD PUSH1 0x20 DUP1 SWAP2 DIV MUL PUSH1 0x20 ADD PUSH1 0x40 MLOAD SWAP1 DUP2 ADD PUSH1 0x40 MSTORE DUP1 SWAP3 SWAP2 SWAP1 DUP2 DUP2 MSTORE PUSH1 0x20 ADD DUP3 DUP1 SLOAD PUSH2 0xD32 SWAP1 PUSH2 0x2840 JUMP JUMPDEST DUP1 ISZERO PUSH2 0xD7F JUMPI DUP1 PUSH1 0x1F LT PUSH2 0xD54 JUMPI PUSH2 0x100 DUP1 DUP4 SLOAD DIV MUL DUP4 MSTORE SWAP2 PUSH1 0x20 ADD SWAP2 PUSH2 0xD7F JUMP JUMPDEST DUP3 ADD SWAP2 SWAP1 PUSH1 0x0 MSTORE PUSH1 0x20 PUSH1 0x0 KECCAK256 SWAP1 JUMPDEST DUP2 SLOAD DUP2 MSTORE SWAP1 PUSH1 0x1 ADD SWAP1 PUSH1 0x20 ADD DUP1 DUP4 GT PUSH2 0xD62 JUMPI DUP3 SWAP1 SUB PUSH1 0x1F AND DUP3 ADD SWAP2 JUMPDEST POP POP POP POP POP DUP2 MSTORE PUSH1 0x20 ADD PUSH1 0x1 DUP3 ADD DUP1 SLOAD PUSH2 0xD98 SWAP1 PUSH2 0x2840 JUMP JUMPDEST DUP1 PUSH1 0x1F ADD PUSH1 0x20 DUP1 SWAP2 DIV MUL PUSH1 0x20 ADD PUSH1 0x40 MLOAD SWAP1 DUP2 ADD PUSH1 0x40 MSTORE DUP1 SWAP3 SWAP2 SWAP1 DUP2 DUP2 MSTORE PUSH1 0x20 ADD DUP3 DUP1 SLOAD PUSH2 0xDC4 SWAP1 PUSH2 0x2840 JUMP JUMPDEST DUP1 ISZERO PUSH2 0xE11 JUMPI DUP1 PUSH1 0x1F LT PUSH2 0xDE6 JUMPI PUSH2 0x100 DUP1 DUP4 SLOAD DIV MUL DUP4 MSTORE SWAP2 PUSH1 0x20 ADD SWAP2 PUSH2 0xE11 JUMP JUMPDEST DUP3 ADD SWAP2 SWAP1 PUSH1 0x0 MSTORE PUSH1 0x20 PUSH1 0x0 KECCAK256 SWAP1 JUMPDEST DUP2 SLOAD DUP2 MSTORE SWAP1 PUSH1 0x1 ADD SWAP1 PUSH1 0x20 ADD DUP1 DUP4 GT PUSH2 0xDF4 JUMPI DUP3 SWAP1 SUB PUSH1 0x1F AND DUP3 ADD SWAP2 JUMPDEST POP POP POP POP POP DUP2 MSTORE PUSH1 0x20 ADD PUSH1 0x2 DUP3 ADD DUP1 SLOAD PUSH2 0xE2A SWAP1 PUSH2 0x2840 JUMP JUMPDEST DUP1 PUSH1 0x1F ADD PUSH1 0x20 DUP1 SWAP2 DIV MUL PUSH1 0x20 ADD PUSH1 0x40 MLOAD SWAP1 DUP2 ADD PUSH1 0x40 MSTORE DUP1 SWAP3 SWAP2 SWAP1 DUP2 DUP2 MSTORE PUSH1 0x20 ADD DUP3 DUP1 SLOAD PUSH2 0xE56 SWAP1 PUSH2 0x2840 JUMP JUMPDEST DUP1 ISZERO PUSH2 0xEA3 JUMPI DUP1 PUSH1 0x1F LT PUSH2 0xE78 JUMPI PUSH2 0x100 DUP1 DUP4 SLOAD DIV MUL DUP4 MSTORE SWAP2 PUSH1 0x20 ADD SWAP2 PUSH2 0xEA3 JUMP JUMPDEST DUP3 ADD SWAP2 SWAP1 PUSH1 0x0 MSTORE PUSH1 0x20 PUSH1 0x0 KECCAK256 SWAP1 JUMPDEST DUP2 SLOAD DUP2 MSTORE SWAP1 PUSH1 0x1 ADD SWAP1 PUSH1 0x20 ADD DUP1 DUP4 GT PUSH2 0xE86 JUMPI DUP3 SWAP1 SUB PUSH1 0x1F AND DUP3 ADD SWAP2 JUMPDEST POP POP POP POP POP DUP2 MSTORE POP POP SWAP4 POP DUP1 PUSH1 0xF ADD PUSH1 0x40 MLOAD DUP1 PUSH1 0xA0 ADD PUSH1 0x40 MSTORE SWAP1 DUP2 PUSH1 0x0 DUP3 ADD PUSH1 0x0 SWAP1 SLOAD SWAP1 PUSH2 0x100 EXP SWAP1 DIV PUSH1 0xFF AND ISZERO ISZERO ISZERO ISZERO DUP2 MSTORE PUSH1 0x20 ADD PUSH1 0x0 DUP3 ADD PUSH1 0x1 SWAP1 SLOAD SWAP1 PUSH2 0x100 EXP SWAP1 DIV PUSH1 0xFF AND ISZERO ISZERO ISZERO ISZERO DUP2 MSTORE PUSH1 0x20 ADD PUSH1 0x0 DUP3 ADD PUSH1 0x2 SWAP1 SLOAD SWAP1 PUSH2 0x100 EXP SWAP1 DIV PUSH1 0xFF AND ISZERO ISZERO ISZERO ISZERO DUP2 MSTORE PUSH1 0x20 ADD PUSH1 0x0 DUP3 ADD PUSH1 0x3 SWAP1 SLOAD SWAP1 PUSH2 0x100 EXP SWAP1 DIV PUSH1 0xFF AND ISZERO ISZERO ISZERO ISZERO DUP2 MSTORE PUSH1 0x20 ADD PUSH1 0x0 DUP3 ADD PUSH1 0x4 SWAP1 SLOAD SWAP1 PUSH2 0x100 EXP SWAP1 DIV PUSH1 0xFF AND ISZERO ISZERO ISZERO ISZERO DUP2 MSTORE POP POP SWAP3 POP POP POP SWAP2 SWAP4 POP SWAP2 SWAP4 JUMP JUMPDEST DUP5 PUSH1 0x2 DUP2 PUSH1 0x40 MLOAD PUSH2 0xF60 SWAP2 SWAP1 PUSH2 0x27FA JUMP JUMPDEST SWAP1 DUP2 MSTORE PUSH1 0x20 ADD PUSH1 0x40 MLOAD DUP1 SWAP2 SUB SWAP1 KECCAK256 PUSH1 0x0 SWAP1 SLOAD SWAP1 PUSH2 0x100 EXP SWAP1 DIV PUSH1 0xFF AND ISZERO PUSH2 0xFB3 JUMPI PUSH1 0x40 MLOAD PUSH32 0x3B6D972900000000000000000000000000000000000000000000000000000000 DUP2 MSTORE PUSH1 0x4 ADD PUSH1 0x40 MLOAD DUP1 SWAP2 SUB SWAP1 REVERT JUMPDEST PUSH1 0x0 DUP1 DUP8 PUSH1 0x40 MLOAD PUSH2 0xFC4 SWAP2 SWAP1 PUSH2 0x27FA JUMP JUMPDEST SWAP1 DUP2 MSTORE PUSH1 0x20 ADD PUSH1 0x40 MLOAD DUP1 SWAP2 SUB SWAP1 KECCAK256 SWAP1 POP DUP6 DUP2 PUSH1 0x0 ADD PUSH1 0x0 DUP3 ADD MLOAD DUP2 PUSH1 0x0 ADD SWAP1 DUP2 PUSH2 0xFEE SWAP2 SWAP1 PUSH2 0x2A27 JUMP JUMPDEST POP PUSH1 0x20 DUP3 ADD MLOAD DUP2 PUSH1 0x1 ADD SWAP1 DUP2 PUSH2 0x1004 SWAP2 SWAP1 PUSH2 0x2A27 JUMP JUMPDEST POP PUSH1 0x40 DUP3 ADD MLOAD DUP2 PUSH1 0x2 ADD SWAP1 DUP2 PUSH2 0x101A SWAP2 SWAP1 PUSH2 0x2A27 JUMP JUMPDEST POP PUSH1 0x60 DUP3 ADD MLOAD DUP2 PUSH1 0x3 ADD SWAP1 DUP2 PUSH2 0x1030 SWAP2 SWAP1 PUSH2 0x2A27 JUMP JUMPDEST POP PUSH1 0x80 DUP3 ADD MLOAD DUP2 PUSH1 0x4 ADD SWAP1 DUP2 PUSH2 0x1046 SWAP2 SWAP1 PUSH2 0x2A27 JUMP JUMPDEST POP PUSH1 0xA0 DUP3 ADD MLOAD DUP2 PUSH1 0x5 ADD SWAP1 DUP2 PUSH2 0x105C SWAP2 SWAP1 PUSH2 0x2A27 JUMP JUMPDEST POP SWAP1 POP POP DUP5 DUP2 PUSH1 0x9 ADD PUSH1 0x0 DUP3 ADD MLOAD DUP2 PUSH1 0x0 ADD SWAP1 DUP2 PUSH2 0x107A SWAP2 SWAP1 PUSH2 0x2A27 JUMP JUMPDEST POP PUSH1 0x20 DUP3 ADD MLOAD DUP2 PUSH1 0x1 ADD SWAP1 DUP2 PUSH2 0x1090 SWAP2 SWAP1 PUSH2 0x2A27 JUMP JUMPDEST POP PUSH1 0x40 DUP3 ADD MLOAD DUP2 PUSH1 0x2 ADD SWAP1 DUP2 PUSH2 0x10A6 SWAP2 SWAP1 PUSH2 0x2A27 JUMP JUMPDEST POP PUSH1 0x60 DUP3 ADD MLOAD DUP2 PUSH1 0x3 ADD SWAP1 DUP2 PUSH2 0x10BC SWAP2 SWAP1 PUSH2 0x2A27 JUMP JUMPDEST POP PUSH1 0x80 DUP3 ADD MLOAD DUP2 PUSH1 0x4 ADD SWAP1 DUP1 MLOAD SWAP1 PUSH1 0x20 ADD SWAP1 PUSH2 0x10D9 SWAP3 SWAP2 SWAP1 PUSH2 0x1973 JUMP JUMPDEST POP PUSH1 0xA0 DUP3 ADD MLOAD DUP2 PUSH1 0x5 ADD SWAP1 DUP2 PUSH2 0x10EF SWAP2 SWAP1 PUSH2 0x2A27 JUMP JUMPDEST POP SWAP1 POP POP DUP4 DUP2 PUSH1 0x6 ADD PUSH1 0x0 DUP3 ADD MLOAD DUP2 PUSH1 0x0 ADD SWAP1 DUP2 PUSH2 0x110D SWAP2 SWAP1 PUSH2 0x2A27 JUMP JUMPDEST POP PUSH1 0x20 DUP3 ADD MLOAD DUP2 PUSH1 0x1 ADD SWAP1 DUP2 PUSH2 0x1123 SWAP2 SWAP1 PUSH2 0x2A27 JUMP JUMPDEST POP PUSH1 0x40 DUP3 ADD MLOAD DUP2 PUSH1 0x2 ADD SWAP1 DUP2 PUSH2 0x1139 SWAP2 SWAP1 PUSH2 0x2A27 JUMP JUMPDEST POP SWAP1 POP POP DUP3 DUP2 PUSH1 0xF ADD PUSH1 0x0 DUP3 ADD MLOAD DUP2 PUSH1 0x0 ADD PUSH1 0x0 PUSH2 0x100 EXP DUP2 SLOAD DUP2 PUSH1 0xFF MUL NOT AND SWAP1 DUP4 ISZERO ISZERO MUL OR SWAP1 SSTORE POP PUSH1 0x20 DUP3 ADD MLOAD DUP2 PUSH1 0x0 ADD PUSH1 0x1 PUSH2 0x100 EXP DUP2 SLOAD DUP2 PUSH1 0xFF MUL NOT AND SWAP1 DUP4 ISZERO ISZERO MUL OR SWAP1 SSTORE POP PUSH1 0x40 DUP3 ADD MLOAD DUP2 PUSH1 0x0 ADD PUSH1 0x2 PUSH2 0x100 EXP DUP2 SLOAD DUP2 PUSH1 0xFF MUL NOT AND SWAP1 DUP4 ISZERO ISZERO MUL OR SWAP1 SSTORE POP PUSH1 0x60 DUP3 ADD MLOAD DUP2 PUSH1 0x0 ADD PUSH1 0x3 PUSH2 0x100 EXP DUP2 SLOAD DUP2 PUSH1 0xFF MUL NOT AND SWAP1 DUP4 ISZERO ISZERO MUL OR SWAP1 SSTORE POP PUSH1 0x80 DUP3 ADD MLOAD DUP2 PUSH1 0x0 ADD PUSH1 0x4 PUSH2 0x100 EXP DUP2 SLOAD DUP2 PUSH1 0xFF MUL NOT AND SWAP1 DUP4 ISZERO ISZERO MUL OR SWAP1 SSTORE POP SWAP1 POP POP PUSH1 0x1 DUP2 PUSH1 0x10 ADD PUSH1 0x0 PUSH2 0x100 EXP DUP2 SLOAD DUP2 PUSH1 0xFF MUL NOT AND SWAP1 DUP4 ISZERO ISZERO MUL OR SWAP1 SSTORE POP PUSH1 0x1 PUSH1 0x2 DUP9 PUSH1 0x40 MLOAD PUSH2 0x1214 SWAP2 SWAP1 PUSH2 0x27FA JUMP JUMPDEST SWAP1 DUP2 MSTORE PUSH1 0x20 ADD PUSH1 0x40 MLOAD DUP1 SWAP2 SUB SWAP1 KECCAK256 PUSH1 0x0 PUSH2 0x100 EXP DUP2 SLOAD DUP2 PUSH1 0xFF MUL NOT AND SWAP1 DUP4 ISZERO ISZERO MUL OR SWAP1 SSTORE POP DUP7 PUSH1 0x1 PUSH1 0x0 CALLER PUSH20 0xFFFFFFFFFFFFFFFFFFFFFFFFFFFFFFFFFFFFFFFF AND PUSH20 0xFFFFFFFFFFFFFFFFFFFFFFFFFFFFFFFFFFFFFFFF AND DUP2 MSTORE PUSH1 0x20 ADD SWAP1 DUP2 MSTORE PUSH1 0x20 ADD PUSH1 0x0 KECCAK256 SWAP1 DUP2 PUSH2 0x1285 SWAP2 SWAP1 PUSH2 0x2A27 JUMP JUMPDEST POP DUP1 PUSH1 0x0 DUP9 PUSH1 0x40 MLOAD PUSH2 0x1297 SWAP2 SWAP1 PUSH2 0x27FA JUMP JUMPDEST SWAP1 DUP2 MSTORE PUSH1 0x20 ADD PUSH1 0x40 MLOAD DUP1 SWAP2 SUB SWAP1 KECCAK256 PUSH1 0x0 DUP3 ADD DUP2 PUSH1 0x0 ADD PUSH1 0x0 DUP3 ADD DUP2 PUSH1 0x0 ADD SWAP1 DUP2 PUSH2 0x12C1 SWAP2 SWAP1 PUSH2 0x2B0F JUMP JUMPDEST POP PUSH1 0x1 DUP3 ADD DUP2 PUSH1 0x1 ADD SWAP1 DUP2 PUSH2 0x12D6 SWAP2 SWAP1 PUSH2 0x2B0F JUMP JUMPDEST POP PUSH1 0x2 DUP3 ADD DUP2 PUSH1 0x2 ADD SWAP1 DUP2 PUSH2 0x12EB SWAP2 SWAP1 PUSH2 0x2B0F JUMP JUMPDEST POP PUSH1 0x3 DUP3 ADD DUP2 PUSH1 0x3 ADD SWAP1 DUP2 PUSH2 0x1300 SWAP2 SWAP1 PUSH2 0x2B0F JUMP JUMPDEST POP PUSH1 0x4 DUP3 ADD DUP2 PUSH1 0x4 ADD SWAP1 DUP2 PUSH2 0x1315 SWAP2 SWAP1 PUSH2 0x2B0F JUMP JUMPDEST POP PUSH1 0x5 DUP3 ADD DUP2 PUSH1 0x5 ADD SWAP1 DUP2 PUSH2 0x132A SWAP2 SWAP1 PUSH2 0x2B0F JUMP JUMPDEST POP POP POP PUSH1 0x6 DUP3 ADD DUP2 PUSH1 0x6 ADD PUSH1 0x0 DUP3 ADD DUP2 PUSH1 0x0 ADD SWAP1 DUP2 PUSH2 0x1349 SWAP2 SWAP1 PUSH2 0x2B0F JUMP JUMPDEST POP PUSH1 0x1 DUP3 ADD DUP2 PUSH1 0x1 ADD SWAP1 DUP2 PUSH2 0x135E SWAP2 SWAP1 PUSH2 0x2B0F JUMP JUMPDEST POP PUSH1 0x2 DUP3 ADD DUP2 PUSH1 0x2 ADD SWAP1 DUP2 PUSH2 0x1373 SWAP2 SWAP1 PUSH2 0x2B0F JUMP JUMPDEST POP POP POP PUSH1 0x9 DUP3 ADD DUP2 PUSH1 0x9 ADD PUSH1 0x0 DUP3 ADD DUP2 PUSH1 0x0 ADD SWAP1 DUP2 PUSH2 0x1392 SWAP2 SWAP1 PUSH2 0x2B0F JUMP JUMPDEST POP PUSH1 0x1 DUP3 ADD DUP2 PUSH1 0x1 ADD SWAP1 DUP2 PUSH2 0x13A7 SWAP2 SWAP1 PUSH2 0x2B0F JUMP JUMPDEST POP PUSH1 0x2 DUP3 ADD DUP2 PUSH1 0x2 ADD SWAP1 DUP2 PUSH2 0x13BC SWAP2 SWAP1 PUSH2 0x2B0F JUMP JUMPDEST POP PUSH1 0x3 DUP3 ADD DUP2 PUSH1 0x3 ADD SWAP1 DUP2 PUSH2 0x13D1 SWAP2 SWAP1 PUSH2 0x2B0F JUMP JUMPDEST POP PUSH1 0x4 DUP3 ADD DUP2 PUSH1 0x4 ADD SWAP1 DUP1 SLOAD PUSH2 0x13E8 SWAP3 SWAP2 SWAP1 PUSH2 0x19CC JUMP JUMPDEST POP PUSH1 0x5 DUP3 ADD DUP2 PUSH1 0x5 ADD SWAP1 DUP2 PUSH2 0x13FD SWAP2 SWAP1 PUSH2 0x2B0F JUMP JUMPDEST POP POP POP PUSH1 0xF DUP3 ADD DUP2 PUSH1 0xF ADD PUSH1 0x0 DUP3 ADD PUSH1 0x0 SWAP1 SLOAD SWAP1 PUSH2 0x100 EXP SWAP1 DIV PUSH1 0xFF AND DUP2 PUSH1 0x0 ADD PUSH1 0x0 PUSH2 0x100 EXP DUP2 SLOAD DUP2 PUSH1 0xFF MUL NOT AND SWAP1 DUP4 ISZERO ISZERO MUL OR SWAP1 SSTORE POP PUSH1 0x0 DUP3 ADD PUSH1 0x1 SWAP1 SLOAD SWAP1 PUSH2 0x100 EXP SWAP1 DIV PUSH1 0xFF AND DUP2 PUSH1 0x0 ADD PUSH1 0x1 PUSH2 0x100 EXP DUP2 SLOAD DUP2 PUSH1 0xFF MUL NOT AND SWAP1 DUP4 ISZERO ISZERO MUL OR SWAP1 SSTORE POP PUSH1 0x0 DUP3 ADD PUSH1 0x2 SWAP1 SLOAD SWAP1 PUSH2 0x100 EXP SWAP1 DIV PUSH1 0xFF AND DUP2 PUSH1 0x0 ADD PUSH1 0x2 PUSH2 0x100 EXP DUP2 SLOAD DUP2 PUSH1 0xFF MUL NOT AND SWAP1 DUP4 ISZERO ISZERO MUL OR SWAP1 SSTORE POP PUSH1 0x0 DUP3 ADD PUSH1 0x3 SWAP1 SLOAD SWAP1 PUSH2 0x100 EXP SWAP1 DIV PUSH1 0xFF AND DUP2 PUSH1 0x0 ADD PUSH1 0x3 PUSH2 0x100 EXP DUP2 SLOAD DUP2 PUSH1 0xFF MUL NOT AND SWAP1 DUP4 ISZERO ISZERO MUL OR SWAP1 SSTORE POP PUSH1 0x0 DUP3 ADD PUSH1 0x4 SWAP1 SLOAD SWAP1 PUSH2 0x100 EXP SWAP1 DIV PUSH1 0xFF AND DUP2 PUSH1 0x0 ADD PUSH1 0x4 PUSH2 0x100 EXP DUP2 SLOAD DUP2 PUSH1 0xFF MUL NOT AND SWAP1 DUP4 ISZERO ISZERO MUL OR SWAP1 SSTORE POP POP POP PUSH1 0x10 DUP3 ADD PUSH1 0x0 SWAP1 SLOAD SWAP1 PUSH2 0x100 EXP SWAP1 DIV PUSH1 0xFF AND DUP2 PUSH1 0x10 ADD PUSH1 0x0 PUSH2 0x100 EXP DUP2 SLOAD DUP2 PUSH1 0xFF MUL NOT AND SWAP1 DUP4 ISZERO ISZERO MUL OR SWAP1 SSTORE POP PUSH1 0x11 DUP3 ADD DUP2 PUSH1 0x11 ADD SWAP1 DUP1 SLOAD PUSH2 0x152E SWAP3 SWAP2 SWAP1 PUSH2 0x1A29 JUMP JUMPDEST POP SWAP1 POP POP POP POP POP POP POP POP POP JUMP JUMPDEST DUP5 PUSH1 0x0 DUP2 PUSH1 0x40 MLOAD PUSH2 0x154C SWAP2 SWAP1 PUSH2 0x27FA JUMP JUMPDEST SWAP1 DUP2 MSTORE PUSH1 0x20 ADD PUSH1 0x40 MLOAD DUP1 SWAP2 SUB SWAP1 KECCAK256 PUSH1 0x10 ADD PUSH1 0x0 SWAP1 SLOAD SWAP1 PUSH2 0x100 EXP SWAP1 DIV PUSH1 0xFF AND PUSH2 0x15A1 JUMPI PUSH1 0x40 MLOAD PUSH32 0xF44D230000000000000000000000000000000000000000000000000000000000 DUP2 MSTORE PUSH1 0x4 ADD PUSH1 0x40 MLOAD DUP1 SWAP2 SUB SWAP1 REVERT JUMPDEST PUSH1 0x0 DUP1 DUP8 PUSH1 0x40 MLOAD PUSH2 0x15B2 SWAP2 SWAP1 PUSH2 0x27FA JUMP JUMPDEST SWAP1 DUP2 MSTORE PUSH1 0x20 ADD PUSH1 0x40 MLOAD DUP1 SWAP2 SUB SWAP1 KECCAK256 SWAP1 POP DUP6 DUP2 PUSH1 0x0 ADD PUSH1 0x0 DUP3 ADD MLOAD DUP2 PUSH1 0x0 ADD SWAP1 DUP2 PUSH2 0x15DC SWAP2 SWAP1 PUSH2 0x2A27 JUMP JUMPDEST POP PUSH1 0x20 DUP3 ADD MLOAD DUP2 PUSH1 0x1 ADD SWAP1 DUP2 PUSH2 0x15F2 SWAP2 SWAP1 PUSH2 0x2A27 JUMP JUMPDEST POP PUSH1 0x40 DUP3 ADD MLOAD DUP2 PUSH1 0x2 ADD SWAP1 DUP2 PUSH2 0x1608 SWAP2 SWAP1 PUSH2 0x2A27 JUMP JUMPDEST POP PUSH1 0x60 DUP3 ADD MLOAD DUP2 PUSH1 0x3 ADD SWAP1 DUP2 PUSH2 0x161E SWAP2 SWAP1 PUSH2 0x2A27 JUMP JUMPDEST POP PUSH1 0x80 DUP3 ADD MLOAD DUP2 PUSH1 0x4 ADD SWAP1 DUP2 PUSH2 0x1634 SWAP2 SWAP1 PUSH2 0x2A27 JUMP JUMPDEST POP PUSH1 0xA0 DUP3 ADD MLOAD DUP2 PUSH1 0x5 ADD SWAP1 DUP2 PUSH2 0x164A SWAP2 SWAP1 PUSH2 0x2A27 JUMP JUMPDEST POP SWAP1 POP POP DUP5 DUP2 PUSH1 0x9 ADD PUSH1 0x0 DUP3 ADD MLOAD DUP2 PUSH1 0x0 ADD SWAP1 DUP2 PUSH2 0x1668 SWAP2 SWAP1 PUSH2 0x2A27 JUMP JUMPDEST POP PUSH1 0x20 DUP3 ADD MLOAD DUP2 PUSH1 0x1 ADD SWAP1 DUP2 PUSH2 0x167E SWAP2 SWAP1 PUSH2 0x2A27 JUMP JUMPDEST POP PUSH1 0x40 DUP3 ADD MLOAD DUP2 PUSH1 0x2 ADD SWAP1 DUP2 PUSH2 0x1694 SWAP2 SWAP1 PUSH2 0x2A27 JUMP JUMPDEST POP PUSH1 0x60 DUP3 ADD MLOAD DUP2 PUSH1 0x3 ADD SWAP1 DUP2 PUSH2 0x16AA SWAP2 SWAP1 PUSH2 0x2A27 JUMP JUMPDEST POP PUSH1 0x80 DUP3 ADD MLOAD DUP2 PUSH1 0x4 ADD SWAP1 DUP1 MLOAD SWAP1 PUSH1 0x20 ADD SWAP1 PUSH2 0x16C7 SWAP3 SWAP2 SWAP1 PUSH2 0x1973 JUMP JUMPDEST POP PUSH1 0xA0 DUP3 ADD MLOAD DUP2 PUSH1 0x5 ADD SWAP1 DUP2 PUSH2 0x16DD SWAP2 SWAP1 PUSH2 0x2A27 JUMP JUMPDEST POP SWAP1 POP POP DUP4 DUP2 PUSH1 0x6 ADD PUSH1 0x0 DUP3 ADD MLOAD DUP2 PUSH1 0x0 ADD SWAP1 DUP2 PUSH2 0x16FB SWAP2 SWAP1 PUSH2 0x2A27 JUMP JUMPDEST POP PUSH1 0x20 DUP3 ADD MLOAD DUP2 PUSH1 0x1 ADD SWAP1 DUP2 PUSH2 0x1711 SWAP2 SWAP1 PUSH2 0x2A27 JUMP JUMPDEST POP PUSH1 0x40 DUP3 ADD MLOAD DUP2 PUSH1 0x2 ADD SWAP1 DUP2 PUSH2 0x1727 SWAP2 SWAP1 PUSH2 0x2A27 JUMP JUMPDEST POP SWAP1 POP POP DUP3 DUP2 PUSH1 0xF ADD PUSH1 0x0 DUP3 ADD MLOAD DUP2 PUSH1 0x0 ADD PUSH1 0x0 PUSH2 0x100 EXP DUP2 SLOAD DUP2 PUSH1 0xFF MUL NOT AND SWAP1 DUP4 ISZERO ISZERO MUL OR SWAP1 SSTORE POP PUSH1 0x20 DUP3 ADD MLOAD DUP2 PUSH1 0x0 ADD PUSH1 0x1 PUSH2 0x100 EXP DUP2 SLOAD DUP2 PUSH1 0xFF MUL NOT AND SWAP1 DUP4 ISZERO ISZERO MUL OR SWAP1 SSTORE POP PUSH1 0x40 DUP3 ADD MLOAD DUP2 PUSH1 0x0 ADD PUSH1 0x2 PUSH2 0x100 EXP DUP2 SLOAD DUP2 PUSH1 0xFF MUL NOT AND SWAP1 DUP4 ISZERO ISZERO MUL OR SWAP1 SSTORE POP PUSH1 0x60 DUP3 ADD MLOAD DUP2 PUSH1 0x0 ADD PUSH1 0x3 PUSH2 0x100 EXP DUP2 SLOAD DUP2 PUSH1 0xFF MUL NOT AND SWAP1 DUP4 ISZERO ISZERO MUL OR SWAP1 SSTORE POP PUSH1 0x80 DUP3 ADD MLOAD DUP2 PUSH1 0x0 ADD PUSH1 0x4 PUSH2 0x100 EXP DUP2 SLOAD DUP2 PUSH1 0xFF MUL NOT AND SWAP1 DUP4 ISZERO ISZERO MUL OR SWAP1 SSTORE POP SWAP1 POP POP POP POP POP POP POP POP POP JUMP JUMPDEST PUSH1 0x60 PUSH1 0x1 PUSH1 0x0 DUP4 PUSH20 0xFFFFFFFFFFFFFFFFFFFFFFFFFFFFFFFFFFFFFFFF AND PUSH20 0xFFFFFFFFFFFFFFFFFFFFFFFFFFFFFFFFFFFFFFFF AND DUP2 MSTORE PUSH1 0x20 ADD SWAP1 DUP2 MSTORE PUSH1 0x20 ADD PUSH1 0x0 KECCAK256 DUP1 SLOAD PUSH2 0x1828 SWAP1 PUSH2 0x2840 JUMP JUMPDEST DUP1 PUSH1 0x1F ADD PUSH1 0x20 DUP1 SWAP2 DIV MUL PUSH1 0x20 ADD PUSH1 0x40 MLOAD SWAP1 DUP2 ADD PUSH1 0x40 MSTORE DUP1 SWAP3 SWAP2 SWAP1 DUP2 DUP2 MSTORE PUSH1 0x20 ADD DUP3 DUP1 SLOAD PUSH2 0x1854 SWAP1 PUSH2 0x2840 JUMP JUMPDEST DUP1 ISZERO PUSH2 0x18A1 JUMPI DUP1 PUSH1 0x1F LT PUSH2 0x1876 JUMPI PUSH2 0x100 DUP1 DUP4 SLOAD DIV MUL DUP4 MSTORE SWAP2 PUSH1 0x20 ADD SWAP2 PUSH2 0x18A1 JUMP JUMPDEST DUP3 ADD SWAP2 SWAP1 PUSH1 0x0 MSTORE PUSH1 0x20 PUSH1 0x0 KECCAK256 SWAP1 JUMPDEST DUP2 SLOAD DUP2 MSTORE SWAP1 PUSH1 0x1 ADD SWAP1 PUSH1 0x20 ADD DUP1 DUP4 GT PUSH2 0x1884 JUMPI DUP3 SWAP1 SUB PUSH1 0x1F AND DUP3 ADD SWAP2 JUMPDEST POP POP POP POP POP SWAP1 POP SWAP2 SWAP1 POP JUMP JUMPDEST PUSH1 0x40 MLOAD DUP1 PUSH1 0xA0 ADD PUSH1 0x40 MSTORE DUP1 PUSH1 0x0 ISZERO ISZERO DUP2 MSTORE PUSH1 0x20 ADD PUSH1 0x0 ISZERO ISZERO DUP2 MSTORE PUSH1 0x20 ADD PUSH1 0x0 ISZERO ISZERO DUP2 MSTORE PUSH1 0x20 ADD PUSH1 0x0 ISZERO ISZERO DUP2 MSTORE PUSH1 0x20 ADD PUSH1 0x0 ISZERO ISZERO DUP2 MSTORE POP SWAP1 JUMP JUMPDEST PUSH1 0x40 MLOAD DUP1 PUSH1 0xC0 ADD PUSH1 0x40 MSTORE DUP1 PUSH1 0x60 DUP2 MSTORE PUSH1 0x20 ADD PUSH1 0x60 DUP2 MSTORE PUSH1 0x20 ADD PUSH1 0x60 DUP2 MSTORE PUSH1 0x20 ADD PUSH1 0x60 DUP2 MSTORE PUSH1 0x20 ADD PUSH1 0x60 DUP2 MSTORE PUSH1 0x20 ADD PUSH1 0x60 DUP2 MSTORE POP SWAP1 JUMP JUMPDEST PUSH1 0x40 MLOAD DUP1 PUSH1 0xC0 ADD PUSH1 0x40 MSTORE DUP1 PUSH1 0x60 DUP2 MSTORE PUSH1 0x20 ADD PUSH1 0x60 DUP2 MSTORE PUSH1 0x20 ADD PUSH1 0x60 DUP2 MSTORE PUSH1 0x20 ADD PUSH1 0x60 DUP2 MSTORE PUSH1 0x20 ADD PUSH1 0x60 DUP2 MSTORE PUSH1 0x20 ADD PUSH1 0x60 DUP2 MSTORE POP SWAP1 JUMP JUMPDEST PUSH1 0x40 MLOAD DUP1 PUSH1 0x60 ADD PUSH1 0x40 MSTORE DUP1 PUSH1 0x60 DUP2 MSTORE PUSH1 0x20 ADD PUSH1 0x60 DUP2 MSTORE PUSH1 0x20 ADD PUSH1 0x60 DUP2 MSTORE POP SWAP1 JUMP JUMPDEST DUP3 DUP1 SLOAD DUP3 DUP3 SSTORE SWAP1 PUSH1 0x0 MSTORE PUSH1 0x20 PUSH1 0x0 KECCAK256 SWAP1 DUP2 ADD SWAP3 DUP3 ISZERO PUSH2 0x19BB JUMPI SWAP2 PUSH1 0x20 MUL DUP3 ADD JUMPDEST DUP3 DUP2 GT ISZERO PUSH2 0x19BA JUMPI DUP3 MLOAD DUP3 SWAP1 DUP2 PUSH2 0x19AA SWAP2 SWAP1 PUSH2 0x2A27 JUMP JUMPDEST POP SWAP2 PUSH1 0x20 ADD SWAP2 SWAP1 PUSH1 0x1 ADD SWAP1 PUSH2 0x1993 JUMP JUMPDEST JUMPDEST POP SWAP1 POP PUSH2 0x19C8 SWAP2 SWAP1 PUSH2 0x1A7B JUMP JUMPDEST POP SWAP1 JUMP JUMPDEST DUP3 DUP1 SLOAD DUP3 DUP3 SSTORE SWAP1 PUSH1 0x0 MSTORE PUSH1 0x20 PUSH1 0x0 KECCAK256 SWAP1 DUP2 ADD SWAP3 DUP3 ISZERO PUSH2 0x1A18 JUMPI PUSH1 0x0 MSTORE PUSH1 0x20 PUSH1 0x0 KECCAK256 SWAP2 DUP3 ADD JUMPDEST DUP3 DUP2 GT ISZERO PUSH2 0x1A17 JUMPI DUP3 DUP3 SWAP1 DUP2 PUSH2 0x1A07 SWAP2 SWAP1 PUSH2 0x2B0F JUMP JUMPDEST POP SWAP2 PUSH1 0x1 ADD SWAP2 SWAP1 PUSH1 0x1 ADD SWAP1 PUSH2 0x19F1 JUMP JUMPDEST JUMPDEST POP SWAP1 POP PUSH2 0x1A25 SWAP2 SWAP1 PUSH2 0x1A7B JUMP JUMPDEST POP SWAP1 JUMP JUMPDEST DUP3 DUP1 SLOAD DUP3 DUP3 SSTORE SWAP1 PUSH1 0x0 MSTORE PUSH1 0x20 PUSH1 0x0 KECCAK256 SWAP1 DUP2 ADD SWAP3 DUP3 ISZERO PUSH2 0x1A6A JUMPI PUSH1 0x0 MSTORE PUSH1 0x20 PUSH1 0x0 KECCAK256 SWAP2 DUP3 ADD JUMPDEST DUP3 DUP2 GT ISZERO PUSH2 0x1A69 JUMPI DUP3 SLOAD DUP3 SSTORE SWAP2 PUSH1 0x1 ADD SWAP2 SWAP1 PUSH1 0x1 ADD SWAP1 PUSH2 0x1A4E JUMP JUMPDEST JUMPDEST POP SWAP1 POP PUSH2 0x1A77 SWAP2 SWAP1 PUSH2 0x1A9F JUMP JUMPDEST POP SWAP1 JUMP JUMPDEST JUMPDEST DUP1 DUP3 GT ISZERO PUSH2 0x1A9B JUMPI PUSH1 0x0 DUP2 DUP2 PUSH2 0x1A92 SWAP2 SWAP1 PUSH2 0x1ABC JUMP JUMPDEST POP PUSH1 0x1 ADD PUSH2 0x1A7C JUMP JUMPDEST POP SWAP1 JUMP JUMPDEST JUMPDEST DUP1 DUP3 GT ISZERO PUSH2 0x1AB8 JUMPI PUSH1 0x0 DUP2 PUSH1 0x0 SWAP1 SSTORE POP PUSH1 0x1 ADD PUSH2 0x1AA0 JUMP JUMPDEST POP SWAP1 JUMP JUMPDEST POP DUP1 SLOAD PUSH2 0x1AC8 SWAP1 PUSH2 0x2840 JUMP JUMPDEST PUSH1 0x0 DUP3 SSTORE DUP1 PUSH1 0x1F LT PUSH2 0x1ADA JUMPI POP PUSH2 0x1AF9 JUMP JUMPDEST PUSH1 0x1F ADD PUSH1 0x20 SWAP1 DIV SWAP1 PUSH1 0x0 MSTORE PUSH1 0x20 PUSH1 0x0 KECCAK256 SWAP1 DUP2 ADD SWAP1 PUSH2 0x1AF8 SWAP2 SWAP1 PUSH2 0x1A9F JUMP JUMPDEST JUMPDEST POP JUMP JUMPDEST PUSH1 0x0 PUSH1 0x40 MLOAD SWAP1 POP SWAP1 JUMP JUMPDEST PUSH1 0x0 DUP1 REVERT JUMPDEST PUSH1 0x0 DUP1 REVERT JUMPDEST PUSH1 0x0 DUP1 REVERT JUMPDEST PUSH1 0x0 DUP1 REVERT JUMPDEST PUSH1 0x0 PUSH1 0x1F NOT PUSH1 0x1F DUP4 ADD AND SWAP1 POP SWAP2 SWAP1 POP JUMP JUMPDEST PUSH32 0x4E487B7100000000000000000000000000000000000000000000000000000000 PUSH1 0x0 MSTORE PUSH1 0x41 PUSH1 0x4 MSTORE PUSH1 0x24 PUSH1 0x0 REVERT JUMPDEST PUSH2 0x1B63 DUP3 PUSH2 0x1B1A JUMP JUMPDEST DUP2 ADD DUP2 DUP2 LT PUSH8 0xFFFFFFFFFFFFFFFF DUP3 GT OR ISZERO PUSH2 0x1B82 JUMPI PUSH2 0x1B81 PUSH2 0x1B2B JUMP JUMPDEST JUMPDEST DUP1 PUSH1 0x40 MSTORE POP POP POP JUMP JUMPDEST PUSH1 0x0 PUSH2 0x1B95 PUSH2 0x1AFC JUMP JUMPDEST SWAP1 POP PUSH2 0x1BA1 DUP3 DUP3 PUSH2 0x1B5A JUMP JUMPDEST SWAP2 SWAP1 POP JUMP JUMPDEST PUSH1 0x0 PUSH8 0xFFFFFFFFFFFFFFFF DUP3 GT ISZERO PUSH2 0x1BC1 JUMPI PUSH2 0x1BC0 PUSH2 0x1B2B JUMP JUMPDEST JUMPDEST PUSH2 0x1BCA DUP3 PUSH2 0x1B1A JUMP JUMPDEST SWAP1 POP PUSH1 0x20 DUP2 ADD SWAP1 POP SWAP2 SWAP1 POP JUMP JUMPDEST DUP3 DUP2 DUP4 CALLDATACOPY PUSH1 0x0 DUP4 DUP4 ADD MSTORE POP POP POP JUMP JUMPDEST PUSH1 0x0 PUSH2 0x1BF9 PUSH2 0x1BF4 DUP5 PUSH2 0x1BA6 JUMP JUMPDEST PUSH2 0x1B8B JUMP JUMPDEST SWAP1 POP DUP3 DUP2 MSTORE PUSH1 0x20 DUP2 ADD DUP5 DUP5 DUP5 ADD GT ISZERO PUSH2 0x1C15 JUMPI PUSH2 0x1C14 PUSH2 0x1B15 JUMP JUMPDEST JUMPDEST PUSH2 0x1C20 DUP5 DUP3 DUP6 PUSH2 0x1BD7 JUMP JUMPDEST POP SWAP4 SWAP3 POP POP POP JUMP JUMPDEST PUSH1 0x0 DUP3 PUSH1 0x1F DUP4 ADD SLT PUSH2 0x1C3D JUMPI PUSH2 0x1C3C PUSH2 0x1B10 JUMP JUMPDEST JUMPDEST DUP2 CALLDATALOAD PUSH2 0x1C4D DUP5 DUP3 PUSH1 0x20 DUP7 ADD PUSH2 0x1BE6 JUMP JUMPDEST SWAP2 POP POP SWAP3 SWAP2 POP POP JUMP JUMPDEST PUSH1 0x0 PUSH1 0x20 DUP3 DUP5 SUB SLT ISZERO PUSH2 0x1C6C JUMPI PUSH2 0x1C6B PUSH2 0x1B06 JUMP JUMPDEST JUMPDEST PUSH1 0x0 DUP3 ADD CALLDATALOAD PUSH8 0xFFFFFFFFFFFFFFFF DUP2 GT ISZERO PUSH2 0x1C8A JUMPI PUSH2 0x1C89 PUSH2 0x1B0B JUMP JUMPDEST JUMPDEST PUSH2 0x1C96 DUP5 DUP3 DUP6 ADD PUSH2 0x1C28 JUMP JUMPDEST SWAP2 POP POP SWAP3 SWAP2 POP POP JUMP JUMPDEST PUSH1 0x0 DUP2 ISZERO ISZERO SWAP1 POP SWAP2 SWAP1 POP JUMP JUMPDEST PUSH2 0x1CB4 DUP2 PUSH2 0x1C9F JUMP JUMPDEST DUP3 MSTORE POP POP JUMP JUMPDEST PUSH1 0xA0 DUP3 ADD PUSH1 0x0 DUP3 ADD MLOAD PUSH2 0x1CD0 PUSH1 0x0 DUP6 ADD DUP3 PUSH2 0x1CAB JUMP JUMPDEST POP PUSH1 0x20 DUP3 ADD MLOAD PUSH2 0x1CE3 PUSH1 0x20 DUP6 ADD DUP3 PUSH2 0x1CAB JUMP JUMPDEST POP PUSH1 0x40 DUP3 ADD MLOAD PUSH2 0x1CF6 PUSH1 0x40 DUP6 ADD DUP3 PUSH2 0x1CAB JUMP JUMPDEST POP PUSH1 0x60 DUP3 ADD MLOAD PUSH2 0x1D09 PUSH1 0x60 DUP6 ADD DUP3 PUSH2 0x1CAB JUMP JUMPDEST POP PUSH1 0x80 DUP3 ADD MLOAD PUSH2 0x1D1C PUSH1 0x80 DUP6 ADD DUP3 PUSH2 0x1CAB JUMP JUMPDEST POP POP POP POP JUMP JUMPDEST PUSH1 0x0 PUSH1 0xA0 DUP3 ADD SWAP1 POP PUSH2 0x1D37 PUSH1 0x0 DUP4 ADD DUP5 PUSH2 0x1CBA JUMP JUMPDEST SWAP3 SWAP2 POP POP JUMP JUMPDEST PUSH1 0x0 DUP1 REVERT JUMPDEST PUSH1 0x0 DUP1 REVERT JUMPDEST PUSH2 0x1D50 DUP2 PUSH2 0x1C9F JUMP JUMPDEST DUP2 EQ PUSH2 0x1D5B JUMPI PUSH1 0x0 DUP1 REVERT JUMPDEST POP JUMP JUMPDEST PUSH1 0x0 DUP2 CALLDATALOAD SWAP1 POP PUSH2 0x1D6D DUP2 PUSH2 0x1D47 JUMP JUMPDEST SWAP3 SWAP2 POP POP JUMP JUMPDEST PUSH1 0x0 PUSH1 0xA0 DUP3 DUP5 SUB SLT ISZERO PUSH2 0x1D89 JUMPI PUSH2 0x1D88 PUSH2 0x1D3D JUMP JUMPDEST JUMPDEST PUSH2 0x1D93 PUSH1 0xA0 PUSH2 0x1B8B JUMP JUMPDEST SWAP1 POP PUSH1 0x0 PUSH2 0x1DA3 DUP5 DUP3 DUP6 ADD PUSH2 0x1D5E JUMP JUMPDEST PUSH1 0x0 DUP4 ADD MSTORE POP PUSH1 0x20 PUSH2 0x1DB7 DUP5 DUP3 DUP6 ADD PUSH2 0x1D5E JUMP JUMPDEST PUSH1 0x20 DUP4 ADD MSTORE POP PUSH1 0x40 PUSH2 0x1DCB DUP5 DUP3 DUP6 ADD PUSH2 0x1D5E JUMP JUMPDEST PUSH1 0x40 DUP4 ADD MSTORE POP PUSH1 0x60 PUSH2 0x1DDF DUP5 DUP3 DUP6 ADD PUSH2 0x1D5E JUMP JUMPDEST PUSH1 0x60 DUP4 ADD MSTORE POP PUSH1 0x80 PUSH2 0x1DF3 DUP5 DUP3 DUP6 ADD PUSH2 0x1D5E JUMP JUMPDEST PUSH1 0x80 DUP4 ADD MSTORE POP SWAP3 SWAP2 POP POP JUMP JUMPDEST PUSH1 0x0 DUP1 PUSH1 0xC0 DUP4 DUP6 SUB SLT ISZERO PUSH2 0x1E16 JUMPI PUSH2 0x1E15 PUSH2 0x1B06 JUMP JUMPDEST JUMPDEST PUSH1 0x0 DUP4 ADD CALLDATALOAD PUSH8 0xFFFFFFFFFFFFFFFF DUP2 GT ISZERO PUSH2 0x1E34 JUMPI PUSH2 0x1E33 PUSH2 0x1B0B JUMP JUMPDEST JUMPDEST PUSH2 0x1E40 DUP6 DUP3 DUP7 ADD PUSH2 0x1C28 JUMP JUMPDEST SWAP3 POP POP PUSH1 0x20 PUSH2 0x1E51 DUP6 DUP3 DUP7 ADD PUSH2 0x1D73 JUMP JUMPDEST SWAP2 POP POP SWAP3 POP SWAP3 SWAP1 POP JUMP JUMPDEST PUSH1 0x0 PUSH20 0xFFFFFFFFFFFFFFFFFFFFFFFFFFFFFFFFFFFFFFFF DUP3 AND SWAP1 POP SWAP2 SWAP1 POP JUMP JUMPDEST PUSH1 0x0 PUSH2 0x1E86 DUP3 PUSH2 0x1E5B JUMP JUMPDEST SWAP1 POP SWAP2 SWAP1 POP JUMP JUMPDEST PUSH2 0x1E96 DUP2 PUSH2 0x1E7B JUMP JUMPDEST DUP2 EQ PUSH2 0x1EA1 JUMPI PUSH1 0x0 DUP1 REVERT JUMPDEST POP JUMP JUMPDEST PUSH1 0x0 DUP2 CALLDATALOAD SWAP1 POP PUSH2 0x1EB3 DUP2 PUSH2 0x1E8D JUMP JUMPDEST SWAP3 SWAP2 POP POP JUMP JUMPDEST PUSH1 0x0 PUSH1 0x20 DUP3 DUP5 SUB SLT ISZERO PUSH2 0x1ECF JUMPI PUSH2 0x1ECE PUSH2 0x1B06 JUMP JUMPDEST JUMPDEST PUSH1 0x0 PUSH2 0x1EDD DUP5 DUP3 DUP6 ADD PUSH2 0x1EA4 JUMP JUMPDEST SWAP2 POP POP SWAP3 SWAP2 POP POP JUMP JUMPDEST PUSH1 0x0 DUP2 MLOAD SWAP1 POP SWAP2 SWAP1 POP JUMP JUMPDEST PUSH1 0x0 DUP3 DUP3 MSTORE PUSH1 0x20 DUP3 ADD SWAP1 POP SWAP3 SWAP2 POP POP JUMP JUMPDEST PUSH1 0x0 JUMPDEST DUP4 DUP2 LT ISZERO PUSH2 0x1F20 JUMPI DUP1 DUP3 ADD MLOAD DUP2 DUP5 ADD MSTORE PUSH1 0x20 DUP2 ADD SWAP1 POP PUSH2 0x1F05 JUMP JUMPDEST PUSH1 0x0 DUP5 DUP5 ADD MSTORE POP POP POP POP JUMP JUMPDEST PUSH1 0x0 PUSH2 0x1F37 DUP3 PUSH2 0x1EE6 JUMP JUMPDEST PUSH2 0x1F41 DUP2 DUP6 PUSH2 0x1EF1 JUMP JUMPDEST SWAP4 POP PUSH2 0x1F51 DUP2 DUP6 PUSH1 0x20 DUP7 ADD PUSH2 0x1F02 JUMP JUMPDEST PUSH2 0x1F5A DUP2 PUSH2 0x1B1A JUMP JUMPDEST DUP5 ADD SWAP2 POP POP SWAP3 SWAP2 POP POP JUMP JUMPDEST PUSH1 0x0 PUSH1 0xC0 DUP4 ADD PUSH1 0x0 DUP4 ADD MLOAD DUP5 DUP3 SUB PUSH1 0x0 DUP7 ADD MSTORE PUSH2 0x1F82 DUP3 DUP3 PUSH2 0x1F2C JUMP JUMPDEST SWAP2 POP POP PUSH1 0x20 DUP4 ADD MLOAD DUP5 DUP3 SUB PUSH1 0x20 DUP7 ADD MSTORE PUSH2 0x1F9C DUP3 DUP3 PUSH2 0x1F2C JUMP JUMPDEST SWAP2 POP POP PUSH1 0x40 DUP4 ADD MLOAD DUP5 DUP3 SUB PUSH1 0x40 DUP7 ADD MSTORE PUSH2 0x1FB6 DUP3 DUP3 PUSH2 0x1F2C JUMP JUMPDEST SWAP2 POP POP PUSH1 0x60 DUP4 ADD MLOAD DUP5 DUP3 SUB PUSH1 0x60 DUP7 ADD MSTORE PUSH2 0x1FD0 DUP3 DUP3 PUSH2 0x1F2C JUMP JUMPDEST SWAP2 POP POP PUSH1 0x80 DUP4 ADD MLOAD DUP5 DUP3 SUB PUSH1 0x80 DUP7 ADD MSTORE PUSH2 0x1FEA DUP3 DUP3 PUSH2 0x1F2C JUMP JUMPDEST SWAP2 POP POP PUSH1 0xA0 DUP4 ADD MLOAD DUP5 DUP3 SUB PUSH1 0xA0 DUP7 ADD MSTORE PUSH2 0x2004 DUP3 DUP3 PUSH2 0x1F2C JUMP JUMPDEST SWAP2 POP POP DUP1 SWAP2 POP POP SWAP3 SWAP2 POP POP JUMP JUMPDEST PUSH1 0x0 DUP2 MLOAD SWAP1 POP SWAP2 SWAP1 POP JUMP JUMPDEST PUSH1 0x0 DUP3 DUP3 MSTORE PUSH1 0x20 DUP3 ADD SWAP1 POP SWAP3 SWAP2 POP POP JUMP JUMPDEST PUSH1 0x0 DUP2 SWAP1 POP PUSH1 0x20 DUP3 ADD SWAP1 POP SWAP2 SWAP1 POP JUMP JUMPDEST PUSH1 0x0 PUSH2 0x2049 DUP4 DUP4 PUSH2 0x1F2C JUMP JUMPDEST SWAP1 POP SWAP3 SWAP2 POP POP JUMP JUMPDEST PUSH1 0x0 PUSH1 0x20 DUP3 ADD SWAP1 POP SWAP2 SWAP1 POP JUMP JUMPDEST PUSH1 0x0 PUSH2 0x2069 DUP3 PUSH2 0x2011 JUMP JUMPDEST PUSH2 0x2073 DUP2 DUP6 PUSH2 0x201C JUMP JUMPDEST SWAP4 POP DUP4 PUSH1 0x20 DUP3 MUL DUP6 ADD PUSH2 0x2085 DUP6 PUSH2 0x202D JUMP JUMPDEST DUP1 PUSH1 0x0 JUMPDEST DUP6 DUP2 LT ISZERO PUSH2 0x20C1 JUMPI DUP5 DUP5 SUB DUP10 MSTORE DUP2 MLOAD PUSH2 0x20A2 DUP6 DUP3 PUSH2 0x203D JUMP JUMPDEST SWAP5 POP PUSH2 0x20AD DUP4 PUSH2 0x2051 JUMP JUMPDEST SWAP3 POP PUSH1 0x20 DUP11 ADD SWAP10 POP POP PUSH1 0x1 DUP2 ADD SWAP1 POP PUSH2 0x2089 JUMP JUMPDEST POP DUP3 SWAP8 POP DUP8 SWAP6 POP POP POP POP POP POP SWAP3 SWAP2 POP POP JUMP JUMPDEST PUSH1 0x0 PUSH1 0xC0 DUP4 ADD PUSH1 0x0 DUP4 ADD MLOAD DUP5 DUP3 SUB PUSH1 0x0 DUP7 ADD MSTORE PUSH2 0x20F0 DUP3 DUP3 PUSH2 0x1F2C JUMP JUMPDEST SWAP2 POP POP PUSH1 0x20 DUP4 ADD MLOAD DUP5 DUP3 SUB PUSH1 0x20 DUP7 ADD MSTORE PUSH2 0x210A DUP3 DUP3 PUSH2 0x1F2C JUMP JUMPDEST SWAP2 POP POP PUSH1 0x40 DUP4 ADD MLOAD DUP5 DUP3 SUB PUSH1 0x40 DUP7 ADD MSTORE PUSH2 0x2124 DUP3 DUP3 PUSH2 0x1F2C JUMP JUMPDEST SWAP2 POP POP PUSH1 0x60 DUP4 ADD MLOAD DUP5 DUP3 SUB PUSH1 0x60 DUP7 ADD MSTORE PUSH2 0x213E DUP3 DUP3 PUSH2 0x1F2C JUMP JUMPDEST SWAP2 POP POP PUSH1 0x80 DUP4 ADD MLOAD DUP5 DUP3 SUB PUSH1 0x80 DUP7 ADD MSTORE PUSH2 0x2158 DUP3 DUP3 PUSH2 0x205E JUMP JUMPDEST SWAP2 POP POP PUSH1 0xA0 DUP4 ADD MLOAD DUP5 DUP3 SUB PUSH1 0xA0 DUP7 ADD MSTORE PUSH2 0x2172 DUP3 DUP3 PUSH2 0x1F2C JUMP JUMPDEST SWAP2 POP POP DUP1 SWAP2 POP POP SWAP3 SWAP2 POP POP JUMP JUMPDEST PUSH1 0x0 PUSH1 0x60 DUP4 ADD PUSH1 0x0 DUP4 ADD MLOAD DUP5 DUP3 SUB PUSH1 0x0 DUP7 ADD MSTORE PUSH2 0x219C DUP3 DUP3 PUSH2 0x1F2C JUMP JUMPDEST SWAP2 POP POP PUSH1 0x20 DUP4 ADD MLOAD DUP5 DUP3 SUB PUSH1 0x20 DUP7 ADD MSTORE PUSH2 0x21B6 DUP3 DUP3 PUSH2 0x1F2C JUMP JUMPDEST SWAP2 POP POP PUSH1 0x40 DUP4 ADD MLOAD DUP5 DUP3 SUB PUSH1 0x40 DUP7 ADD MSTORE PUSH2 0x21D0 DUP3 DUP3 PUSH2 0x1F2C JUMP JUMPDEST SWAP2 POP POP DUP1 SWAP2 POP POP SWAP3 SWAP2 POP POP JUMP JUMPDEST PUSH1 0x0 PUSH2 0x100 DUP3 ADD SWAP1 POP DUP2 DUP2 SUB PUSH1 0x0 DUP4 ADD MSTORE PUSH2 0x21F8 DUP2 DUP8 PUSH2 0x1F65 JUMP JUMPDEST SWAP1 POP DUP2 DUP2 SUB PUSH1 0x20 DUP4 ADD MSTORE PUSH2 0x220C DUP2 DUP7 PUSH2 0x20D3 JUMP JUMPDEST SWAP1 POP DUP2 DUP2 SUB PUSH1 0x40 DUP4 ADD MSTORE PUSH2 0x2220 DUP2 DUP6 PUSH2 0x217F JUMP JUMPDEST SWAP1 POP PUSH2 0x222F PUSH1 0x60 DUP4 ADD DUP5 PUSH2 0x1CBA JUMP JUMPDEST SWAP6 SWAP5 POP POP POP POP POP JUMP JUMPDEST PUSH1 0x0 PUSH1 0xC0 DUP3 DUP5 SUB SLT ISZERO PUSH2 0x224E JUMPI PUSH2 0x224D PUSH2 0x1D3D JUMP JUMPDEST JUMPDEST PUSH2 0x2258 PUSH1 0xC0 PUSH2 0x1B8B JUMP JUMPDEST SWAP1 POP PUSH1 0x0 DUP3 ADD CALLDATALOAD PUSH8 0xFFFFFFFFFFFFFFFF DUP2 GT ISZERO PUSH2 0x2278 JUMPI PUSH2 0x2277 PUSH2 0x1D42 JUMP JUMPDEST JUMPDEST PUSH2 0x2284 DUP5 DUP3 DUP6 ADD PUSH2 0x1C28 JUMP JUMPDEST PUSH1 0x0 DUP4 ADD MSTORE POP PUSH1 0x20 DUP3 ADD CALLDATALOAD PUSH8 0xFFFFFFFFFFFFFFFF DUP2 GT ISZERO PUSH2 0x22A8 JUMPI PUSH2 0x22A7 PUSH2 0x1D42 JUMP JUMPDEST JUMPDEST PUSH2 0x22B4 DUP5 DUP3 DUP6 ADD PUSH2 0x1C28 JUMP JUMPDEST PUSH1 0x20 DUP4 ADD MSTORE POP PUSH1 0x40 DUP3 ADD CALLDATALOAD PUSH8 0xFFFFFFFFFFFFFFFF DUP2 GT ISZERO PUSH2 0x22D8 JUMPI PUSH2 0x22D7 PUSH2 0x1D42 JUMP JUMPDEST JUMPDEST PUSH2 0x22E4 DUP5 DUP3 DUP6 ADD PUSH2 0x1C28 JUMP JUMPDEST PUSH1 0x40 DUP4 ADD MSTORE POP PUSH1 0x60 DUP3 ADD CALLDATALOAD PUSH8 0xFFFFFFFFFFFFFFFF DUP2 GT ISZERO PUSH2 0x2308 JUMPI PUSH2 0x2307 PUSH2 0x1D42 JUMP JUMPDEST JUMPDEST PUSH2 0x2314 DUP5 DUP3 DUP6 ADD PUSH2 0x1C28 JUMP JUMPDEST PUSH1 0x60 DUP4 ADD MSTORE POP PUSH1 0x80 DUP3 ADD CALLDATALOAD PUSH8 0xFFFFFFFFFFFFFFFF DUP2 GT ISZERO PUSH2 0x2338 JUMPI PUSH2 0x2337 PUSH2 0x1D42 JUMP JUMPDEST JUMPDEST PUSH2 0x2344 DUP5 DUP3 DUP6 ADD PUSH2 0x1C28 JUMP JUMPDEST PUSH1 0x80 DUP4 ADD MSTORE POP PUSH1 0xA0 DUP3 ADD CALLDATALOAD PUSH8 0xFFFFFFFFFFFFFFFF DUP2 GT ISZERO PUSH2 0x2368 JUMPI PUSH2 0x2367 PUSH2 0x1D42 JUMP JUMPDEST JUMPDEST PUSH2 0x2374 DUP5 DUP3 DUP6 ADD PUSH2 0x1C28 JUMP JUMPDEST PUSH1 0xA0 DUP4 ADD MSTORE POP SWAP3 SWAP2 POP POP JUMP JUMPDEST PUSH1 0x0 PUSH8 0xFFFFFFFFFFFFFFFF DUP3 GT ISZERO PUSH2 0x239B JUMPI PUSH2 0x239A PUSH2 0x1B2B JUMP JUMPDEST JUMPDEST PUSH1 0x20 DUP3 MUL SWAP1 POP PUSH1 0x20 DUP2 ADD SWAP1 POP SWAP2 SWAP1 POP JUMP JUMPDEST PUSH1 0x0 DUP1 REVERT JUMPDEST PUSH1 0x0 PUSH2 0x23C4 PUSH2 0x23BF DUP5 PUSH2 0x2380 JUMP JUMPDEST PUSH2 0x1B8B JUMP JUMPDEST SWAP1 POP DUP1 DUP4 DUP3 MSTORE PUSH1 0x20 DUP3 ADD SWAP1 POP PUSH1 0x20 DUP5 MUL DUP4 ADD DUP6 DUP2 GT ISZERO PUSH2 0x23E7 JUMPI PUSH2 0x23E6 PUSH2 0x23AC JUMP JUMPDEST JUMPDEST DUP4 JUMPDEST DUP2 DUP2 LT ISZERO PUSH2 0x242E JUMPI DUP1 CALLDATALOAD PUSH8 0xFFFFFFFFFFFFFFFF DUP2 GT ISZERO PUSH2 0x240C JUMPI PUSH2 0x240B PUSH2 0x1B10 JUMP JUMPDEST JUMPDEST DUP1 DUP7 ADD PUSH2 0x2419 DUP10 DUP3 PUSH2 0x1C28 JUMP JUMPDEST DUP6 MSTORE PUSH1 0x20 DUP6 ADD SWAP5 POP POP POP PUSH1 0x20 DUP2 ADD SWAP1 POP PUSH2 0x23E9 JUMP JUMPDEST POP POP POP SWAP4 SWAP3 POP POP POP JUMP JUMPDEST PUSH1 0x0 DUP3 PUSH1 0x1F DUP4 ADD SLT PUSH2 0x244D JUMPI PUSH2 0x244C PUSH2 0x1B10 JUMP JUMPDEST JUMPDEST DUP2 CALLDATALOAD PUSH2 0x245D DUP5 DUP3 PUSH1 0x20 DUP7 ADD PUSH2 0x23B1 JUMP JUMPDEST SWAP2 POP POP SWAP3 SWAP2 POP POP JUMP JUMPDEST PUSH1 0x0 PUSH1 0xC0 DUP3 DUP5 SUB SLT ISZERO PUSH2 0x247C JUMPI PUSH2 0x247B PUSH2 0x1D3D JUMP JUMPDEST JUMPDEST PUSH2 0x2486 PUSH1 0xC0 PUSH2 0x1B8B JUMP JUMPDEST SWAP1 POP PUSH1 0x0 DUP3 ADD CALLDATALOAD PUSH8 0xFFFFFFFFFFFFFFFF DUP2 GT ISZERO PUSH2 0x24A6 JUMPI PUSH2 0x24A5 PUSH2 0x1D42 JUMP JUMPDEST JUMPDEST PUSH2 0x24B2 DUP5 DUP3 DUP6 ADD PUSH2 0x1C28 JUMP JUMPDEST PUSH1 0x0 DUP4 ADD MSTORE POP PUSH1 0x20 DUP3 ADD CALLDATALOAD PUSH8 0xFFFFFFFFFFFFFFFF DUP2 GT ISZERO PUSH2 0x24D6 JUMPI PUSH2 0x24D5 PUSH2 0x1D42 JUMP JUMPDEST JUMPDEST PUSH2 0x24E2 DUP5 DUP3 DUP6 ADD PUSH2 0x1C28 JUMP JUMPDEST PUSH1 0x20 DUP4 ADD MSTORE POP PUSH1 0x40 DUP3 ADD CALLDATALOAD PUSH8 0xFFFFFFFFFFFFFFFF DUP2 GT ISZERO PUSH2 0x2506 JUMPI PUSH2 0x2505 PUSH2 0x1D42 JUMP JUMPDEST JUMPDEST PUSH2 0x2512 DUP5 DUP3 DUP6 ADD PUSH2 0x1C28 JUMP JUMPDEST PUSH1 0x40 DUP4 ADD MSTORE POP PUSH1 0x60 DUP3 ADD CALLDATALOAD PUSH8 0xFFFFFFFFFFFFFFFF DUP2 GT ISZERO PUSH2 0x2536 JUMPI PUSH2 0x2535 PUSH2 0x1D42 JUMP JUMPDEST JUMPDEST PUSH2 0x2542 DUP5 DUP3 DUP6 ADD PUSH2 0x1C28 JUMP JUMPDEST PUSH1 0x60 DUP4 ADD MSTORE POP PUSH1 0x80 DUP3 ADD CALLDATALOAD PUSH8 0xFFFFFFFFFFFFFFFF DUP2 GT ISZERO PUSH2 0x2566 JUMPI PUSH2 0x2565 PUSH2 0x1D42 JUMP JUMPDEST JUMPDEST PUSH2 0x2572 DUP5 DUP3 DUP6 ADD PUSH2 0x2438 JUMP JUMPDEST PUSH1 0x80 DUP4 ADD MSTORE POP PUSH1 0xA0 DUP3 ADD CALLDATALOAD PUSH8 0xFFFFFFFFFFFFFFFF DUP2 GT ISZERO PUSH2 0x2596 JUMPI PUSH2 0x2595 PUSH2 0x1D42 JUMP JUMPDEST JUMPDEST PUSH2 0x25A2 DUP5 DUP3 DUP6 ADD PUSH2 0x1C28 JUMP JUMPDEST PUSH1 0xA0 DUP4 ADD MSTORE POP SWAP3 SWAP2 POP POP JUMP JUMPDEST PUSH1 0x0 PUSH1 0x60 DUP3 DUP5 SUB SLT ISZERO PUSH2 0x25C4 JUMPI PUSH2 0x25C3 PUSH2 0x1D3D JUMP JUMPDEST JUMPDEST PUSH2 0x25CE PUSH1 0x60 PUSH2 0x1B8B JUMP JUMPDEST SWAP1 POP PUSH1 0x0 DUP3 ADD CALLDATALOAD PUSH8 0xFFFFFFFFFFFFFFFF DUP2 GT ISZERO PUSH2 0x25EE JUMPI PUSH2 0x25ED PUSH2 0x1D42 JUMP JUMPDEST JUMPDEST PUSH2 0x25FA DUP5 DUP3 DUP6 ADD PUSH2 0x1C28 JUMP JUMPDEST PUSH1 0x0 DUP4 ADD MSTORE POP PUSH1 0x20 DUP3 ADD CALLDATALOAD PUSH8 0xFFFFFFFFFFFFFFFF DUP2 GT ISZERO PUSH2 0x261E JUMPI PUSH2 0x261D PUSH2 0x1D42 JUMP JUMPDEST JUMPDEST PUSH2 0x262A DUP5 DUP3 DUP6 ADD PUSH2 0x1C28 JUMP JUMPDEST PUSH1 0x20 DUP4 ADD MSTORE POP PUSH1 0x40 DUP3 ADD CALLDATALOAD PUSH8 0xFFFFFFFFFFFFFFFF DUP2 GT ISZERO PUSH2 0x264E JUMPI PUSH2 0x264D PUSH2 0x1D42 JUMP JUMPDEST JUMPDEST PUSH2 0x265A DUP5 DUP3 DUP6 ADD PUSH2 0x1C28 JUMP JUMPDEST PUSH1 0x40 DUP4 ADD MSTORE POP SWAP3 SWAP2 POP POP JUMP JUMPDEST PUSH1 0x0 DUP1 PUSH1 0x0 DUP1 PUSH1 0x0 PUSH2 0x120 DUP7 DUP9 SUB SLT ISZERO PUSH2 0x2683 JUMPI PUSH2 0x2682 PUSH2 0x1B06 JUMP JUMPDEST JUMPDEST PUSH1 0x0 DUP7 ADD CALLDATALOAD PUSH8 0xFFFFFFFFFFFFFFFF DUP2 GT ISZERO PUSH2 0x26A1 JUMPI PUSH2 0x26A0 PUSH2 0x1B0B JUMP JUMPDEST JUMPDEST PUSH2 0x26AD DUP9 DUP3 DUP10 ADD PUSH2 0x1C28 JUMP JUMPDEST SWAP6 POP POP PUSH1 0x20 DUP7 ADD CALLDATALOAD PUSH8 0xFFFFFFFFFFFFFFFF DUP2 GT ISZERO PUSH2 0x26CE JUMPI PUSH2 0x26CD PUSH2 0x1B0B JUMP JUMPDEST JUMPDEST PUSH2 0x26DA DUP9 DUP3 DUP10 ADD PUSH2 0x2238 JUMP JUMPDEST SWAP5 POP POP PUSH1 0x40 DUP7 ADD CALLDATALOAD PUSH8 0xFFFFFFFFFFFFFFFF DUP2 GT ISZERO PUSH2 0x26FB JUMPI PUSH2 0x26FA PUSH2 0x1B0B JUMP JUMPDEST JUMPDEST PUSH2 0x2707 DUP9 DUP3 DUP10 ADD PUSH2 0x2466 JUMP JUMPDEST SWAP4 POP POP PUSH1 0x60 DUP7 ADD CALLDATALOAD PUSH8 0xFFFFFFFFFFFFFFFF DUP2 GT ISZERO PUSH2 0x2728 JUMPI PUSH2 0x2727 PUSH2 0x1B0B JUMP JUMPDEST JUMPDEST PUSH2 0x2734 DUP9 DUP3 DUP10 ADD PUSH2 0x25AE JUMP JUMPDEST SWAP3 POP POP PUSH1 0x80 PUSH2 0x2745 DUP9 DUP3 DUP10 ADD PUSH2 0x1D73 JUMP JUMPDEST SWAP2 POP POP SWAP3 SWAP6 POP SWAP3 SWAP6 SWAP1 SWAP4 POP JUMP JUMPDEST PUSH1 0x0 DUP3 DUP3 MSTORE PUSH1 0x20 DUP3 ADD SWAP1 POP SWAP3 SWAP2 POP POP JUMP JUMPDEST PUSH1 0x0 PUSH2 0x276E DUP3 PUSH2 0x1EE6 JUMP JUMPDEST PUSH2 0x2778 DUP2 DUP6 PUSH2 0x2752 JUMP JUMPDEST SWAP4 POP PUSH2 0x2788 DUP2 DUP6 PUSH1 0x20 DUP7 ADD PUSH2 0x1F02 JUMP JUMPDEST PUSH2 0x2791 DUP2 PUSH2 0x1B1A JUMP JUMPDEST DUP5 ADD SWAP2 POP POP SWAP3 SWAP2 POP POP JUMP JUMPDEST PUSH1 0x0 PUSH1 0x20 DUP3 ADD SWAP1 POP DUP2 DUP2 SUB PUSH1 0x0 DUP4 ADD MSTORE PUSH2 0x27B6 DUP2 DUP5 PUSH2 0x2763 JUMP JUMPDEST SWAP1 POP SWAP3 SWAP2 POP POP JUMP JUMPDEST PUSH1 0x0 DUP2 SWAP1 POP SWAP3 SWAP2 POP POP JUMP JUMPDEST PUSH1 0x0 PUSH2 0x27D4 DUP3 PUSH2 0x1EE6 JUMP JUMPDEST PUSH2 0x27DE DUP2 DUP6 PUSH2 0x27BE JUMP JUMPDEST SWAP4 POP PUSH2 0x27EE DUP2 DUP6 PUSH1 0x20 DUP7 ADD PUSH2 0x1F02 JUMP JUMPDEST DUP1 DUP5 ADD SWAP2 POP POP SWAP3 SWAP2 POP POP JUMP JUMPDEST PUSH1 0x0 PUSH2 0x2806 DUP3 DUP5 PUSH2 0x27C9 JUMP JUMPDEST SWAP2 POP DUP2 SWAP1 POP SWAP3 SWAP2 POP POP JUMP JUMPDEST PUSH32 0x4E487B7100000000000000000000000000000000000000000000000000000000 PUSH1 0x0 MSTORE PUSH1 0x22 PUSH1 0x4 MSTORE PUSH1 0x24 PUSH1 0x0 REVERT JUMPDEST PUSH1 0x0 PUSH1 0x2 DUP3 DIV SWAP1 POP PUSH1 0x1 DUP3 AND DUP1 PUSH2 0x2858 JUMPI PUSH1 0x7F DUP3 AND SWAP2 POP JUMPDEST PUSH1 0x20 DUP3 LT DUP2 SUB PUSH2 0x286B JUMPI PUSH2 0x286A PUSH2 0x2811 JUMP JUMPDEST JUMPDEST POP SWAP2 SWAP1 POP JUMP JUMPDEST PUSH1 0x0 DUP2 SWAP1 POP DUP2 PUSH1 0x0 MSTORE PUSH1 0x20 PUSH1 0x0 KECCAK256 SWAP1 POP SWAP2 SWAP1 POP JUMP JUMPDEST PUSH1 0x0 PUSH1 0x20 PUSH1 0x1F DUP4 ADD DIV SWAP1 POP SWAP2 SWAP1 POP JUMP JUMPDEST PUSH1 0x0 DUP3 DUP3 SHL SWAP1 POP SWAP3 SWAP2 POP POP JUMP JUMPDEST PUSH1 0x0 PUSH1 0x8 DUP4 MUL PUSH2 0x28D3 PUSH32 0xFFFFFFFFFFFFFFFFFFFFFFFFFFFFFFFFFFFFFFFFFFFFFFFFFFFFFFFFFFFFFFFF DUP3 PUSH2 0x2896 JUMP JUMPDEST PUSH2 0x28DD DUP7 DUP4 PUSH2 0x2896 JUMP JUMPDEST SWAP6 POP DUP1 NOT DUP5 AND SWAP4 POP DUP1 DUP7 AND DUP5 OR SWAP3 POP POP POP SWAP4 SWAP3 POP POP POP JUMP JUMPDEST PUSH1 0x0 DUP2 SWAP1 POP SWAP2 SWAP1 POP JUMP JUMPDEST PUSH1 0x0 DUP2 SWAP1 POP SWAP2 SWAP1 POP JUMP JUMPDEST PUSH1 0x0 PUSH2 0x2924 PUSH2 0x291F PUSH2 0x291A DUP5 PUSH2 0x28F5 JUMP JUMPDEST PUSH2 0x28FF JUMP JUMPDEST PUSH2 0x28F5 JUMP JUMPDEST SWAP1 POP SWAP2 SWAP1 POP JUMP JUMPDEST PUSH1 0x0 DUP2 SWAP1 POP SWAP2 SWAP1 POP JUMP JUMPDEST PUSH2 0x293E DUP4 PUSH2 0x2909 JUMP JUMPDEST PUSH2 0x2952 PUSH2 0x294A DUP3 PUSH2 0x292B JUMP JUMPDEST DUP5 DUP5 SLOAD PUSH2 0x28A3 JUMP JUMPDEST DUP3 SSTORE POP POP POP POP JUMP JUMPDEST PUSH1 0x0 SWAP1 JUMP JUMPDEST PUSH2 0x2967 PUSH2 0x295A JUMP JUMPDEST PUSH2 0x2972 DUP2 DUP5 DUP5 PUSH2 0x2935 JUMP JUMPDEST POP POP POP JUMP JUMPDEST JUMPDEST DUP2 DUP2 LT ISZERO PUSH2 0x2996 JUMPI PUSH2 0x298B PUSH1 0x0 DUP3 PUSH2 0x295F JUMP JUMPDEST PUSH1 0x1 DUP2 ADD SWAP1 POP PUSH2 0x2978 JUMP JUMPDEST POP POP JUMP JUMPDEST PUSH1 0x1F DUP3 GT ISZERO PUSH2 0x29DB JUMPI PUSH2 0x29AC DUP2 PUSH2 0x2871 JUMP JUMPDEST PUSH2 0x29B5 DUP5 PUSH2 0x2886 JUMP JUMPDEST DUP2 ADD PUSH1 0x20 DUP6 LT ISZERO PUSH2 0x29C4 JUMPI DUP2 SWAP1 POP JUMPDEST PUSH2 0x29D8 PUSH2 0x29D0 DUP6 PUSH2 0x2886 JUMP JUMPDEST DUP4 ADD DUP3 PUSH2 0x2977 JUMP JUMPDEST POP POP JUMPDEST POP POP POP JUMP JUMPDEST PUSH1 0x0 DUP3 DUP3 SHR SWAP1 POP SWAP3 SWAP2 POP POP JUMP JUMPDEST PUSH1 0x0 PUSH2 0x29FE PUSH1 0x0 NOT DUP5 PUSH1 0x8 MUL PUSH2 0x29E0 JUMP JUMPDEST NOT DUP1 DUP4 AND SWAP2 POP POP SWAP3 SWAP2 POP POP JUMP JUMPDEST PUSH1 0x0 PUSH2 0x2A17 DUP4 DUP4 PUSH2 0x29ED JUMP JUMPDEST SWAP2 POP DUP3 PUSH1 0x2 MUL DUP3 OR SWAP1 POP SWAP3 SWAP2 POP POP JUMP JUMPDEST PUSH2 0x2A30 DUP3 PUSH2 0x1EE6 JUMP JUMPDEST PUSH8 0xFFFFFFFFFFFFFFFF DUP2 GT ISZERO PUSH2 0x2A49 JUMPI PUSH2 0x2A48 PUSH2 0x1B2B JUMP JUMPDEST JUMPDEST PUSH2 0x2A53 DUP3 SLOAD PUSH2 0x2840 JUMP JUMPDEST PUSH2 0x2A5E DUP3 DUP3 DUP6 PUSH2 0x299A JUMP JUMPDEST PUSH1 0x0 PUSH1 0x20 SWAP1 POP PUSH1 0x1F DUP4 GT PUSH1 0x1 DUP2 EQ PUSH2 0x2A91 JUMPI PUSH1 0x0 DUP5 ISZERO PUSH2 0x2A7F JUMPI DUP3 DUP8 ADD MLOAD SWAP1 POP JUMPDEST PUSH2 0x2A89 DUP6 DUP3 PUSH2 0x2A0B JUMP JUMPDEST DUP7 SSTORE POP PUSH2 0x2AF1 JUMP JUMPDEST PUSH1 0x1F NOT DUP5 AND PUSH2 0x2A9F DUP7 PUSH2 0x2871 JUMP JUMPDEST PUSH1 0x0 JUMPDEST DUP3 DUP2 LT ISZERO PUSH2 0x2AC7 JUMPI DUP5 DUP10 ADD MLOAD DUP3 SSTORE PUSH1 0x1 DUP3 ADD SWAP2 POP PUSH1 0x20 DUP6 ADD SWAP5 POP PUSH1 0x20 DUP2 ADD SWAP1 POP PUSH2 0x2AA2 JUMP JUMPDEST DUP7 DUP4 LT ISZERO PUSH2 0x2AE4 JUMPI DUP5 DUP10 ADD MLOAD PUSH2 0x2AE0 PUSH1 0x1F DUP10 AND DUP3 PUSH2 0x29ED JUMP JUMPDEST DUP4 SSTORE POP JUMPDEST PUSH1 0x1 PUSH1 0x2 DUP9 MUL ADD DUP9 SSTORE POP POP POP JUMPDEST POP POP POP POP POP POP JUMP JUMPDEST PUSH1 0x0 DUP2 SLOAD SWAP1 POP PUSH2 0x2B08 DUP2 PUSH2 0x2840 JUMP JUMPDEST SWAP1 POP SWAP2 SWAP1 POP JUMP JUMPDEST DUP2 DUP2 SUB PUSH2 0x2B1D JUMPI POP POP PUSH2 0x2BF5 JUMP JUMPDEST PUSH2 0x2B26 DUP3 PUSH2 0x2AF9 JUMP JUMPDEST PUSH8 0xFFFFFFFFFFFFFFFF DUP2 GT ISZERO PUSH2 0x2B3F JUMPI PUSH2 0x2B3E PUSH2 0x1B2B JUMP JUMPDEST JUMPDEST PUSH2 0x2B49 DUP3 SLOAD PUSH2 0x2840 JUMP JUMPDEST PUSH2 0x2B54 DUP3 DUP3 DUP6 PUSH2 0x299A JUMP JUMPDEST PUSH1 0x0 PUSH1 0x1F DUP4 GT PUSH1 0x1 DUP2 EQ PUSH2 0x2B83 JUMPI PUSH1 0x0 DUP5 ISZERO PUSH2 0x2B71 JUMPI DUP3 DUP8 ADD SLOAD SWAP1 POP JUMPDEST PUSH2 0x2B7B DUP6 DUP3 PUSH2 0x2A0B JUMP JUMPDEST DUP7 SSTORE POP PUSH2 0x2BEE JUMP JUMPDEST PUSH1 0x1F NOT DUP5 AND PUSH2 0x2B91 DUP8 PUSH2 0x2871 JUMP JUMPDEST SWAP7 POP PUSH2 0x2B9C DUP7 PUSH2 0x2871 JUMP JUMPDEST PUSH1 0x0 JUMPDEST DUP3 DUP2 LT ISZERO PUSH2 0x2BC4 JUMPI DUP5 DUP10 ADD SLOAD DUP3 SSTORE PUSH1 0x1 DUP3 ADD SWAP2 POP PUSH1 0x1 DUP6 ADD SWAP5 POP PUSH1 0x20 DUP2 ADD SWAP1 POP PUSH2 0x2B9F JUMP JUMPDEST DUP7 DUP4 LT ISZERO PUSH2 0x2BE1 JUMPI DUP5 DUP10 ADD SLOAD PUSH2 0x2BDD PUSH1 0x1F DUP10 AND DUP3 PUSH2 0x29ED JUMP JUMPDEST DUP4 SSTORE POP JUMPDEST PUSH1 0x1 PUSH1 0x2 DUP9 MUL ADD DUP9 SSTORE POP POP POP JUMPDEST POP POP POP POP POP POP JUMPDEST JUMP INVALID LOG2 PUSH5 0x6970667358 0x22 SLT KECCAK256 LOG2 DUP14 CREATE2 0xB5 CALLDATASIZE PUSH24 0x6E8773706CB62F87D45268AE77E888AFFB6B28D1B478B446 0xD5 0x2F PUSH5 0x736F6C6343 STOP ADDMOD XOR STOP CALLER "},"gasEstimates":{"creation":{"codeDepositCost":"2261800","executionCost":"2419","totalCost":"2264219"},"external":{"createUser(string,(string,string,string,string,string,string),(string,string,string,string,string[],string),(string,string,string),(bool,bool,bool,bool,bool))":"infinite","editUser(string,(string,string,string,string,string,string),(string,string,string,string,string[],string),(string,string,string),(bool,bool,bool,bool,bool))":"infinite","getUserByAddress(address)":"infinite","getUserByUsername(string)":"infinite","getUsernameByAddress(address)":"infinite","getVisibility(string)":"infinite","setVisibiliy(string,(bool,bool,bool,bool,bool))":"infinite"}},"methodIdentifiers":{"createUser(string,(string,string,string,string,string,string),(string,string,string,string,string[],string),(string,string,string),(bool,bool,bool,bool,bool))":"d2e49ddb","editUser(string,(string,string,string,string,string,string),(string,string,string,string,string[],string),(string,string,string),(bool,bool,bool,bool,bool))":"e455db8c","getUserByAddress(address)":"69c212f6","getUserByUsername(string)":"9f42af63","getUsernameByAddress(address)":"ed1a998d","getVisibility(string)":"320ba8f7","setVisibiliy(string,(bool,bool,bool,bool,bool))":"4b20a70f"}},"storageLayout":{"storage":[{"astId":73,"contract":"contracts/IdentiFi.sol:IdentiFi","label":"users","offset":0,"slot":"0","type":"t_mapping(t_string_memory_ptr,t_struct(User)23_storage)"},{"astId":77,"contract":"contracts/IdentiFi.sol:IdentiFi","label":"addressToUsername","offset":0,"slot":"1","type":"t_mapping(t_address,t_string_storage)"},{"astId":81,"contract":"contracts/IdentiFi.sol:IdentiFi","label":"usernames","offset":0,"slot":"2","type":"t_mapping(t_string_memory_ptr,t_bool)"}],"types":{"t_address":{"encoding":"inplace","label":"address","numberOfBytes":"20"},"t_array(t_string_storage)dyn_storage":{"base":"t_string_storage","encoding":"dynamic_array","label":"string[]","numberOfBytes":"32"},"t_array(t_uint256)dyn_storage":{"base":"t_uint256","encoding":"dynamic_array","label":"uint256[]","numberOfBytes":"32"},"t_bool":{"encoding":"inplace","label":"bool","numberOfBytes":"1"},"t_mapping(t_address,t_string_storage)":{"encoding":"mapping","key":"t_address","label":"mapping(address => string)","numberOfBytes":"32","value":"t_string_storage"},"t_mapping(t_string_memory_ptr,t_bool)":{"encoding":"mapping","key":"t_string_memory_ptr","label":"mapping(string => bool)","numberOfBytes":"32","value":"t_bool"},"t_mapping(t_string_memory_ptr,t_struct(User)23_storage)":{"encoding":"mapping","key":"t_string_memory_ptr","label":"mapping(string => struct IdentiFi.User)","numberOfBytes":"32","value":"t_struct(User)23_storage"},"t_string_memory_ptr":{"encoding":"bytes","label":"string","numberOfBytes":"32"},"t_string_storage":{"encoding":"bytes","label":"string","numberOfBytes":"32"},"t_struct(BasicInfo)36_storage":{"encoding":"inplace","label":"struct IdentiFi.BasicInfo","members":[{"astId":25,"contract":"contracts/IdentiFi.sol:IdentiFi","label":"firstName","offset":0,"slot":"0","type":"t_string_storage"},{"astId":27,"contract":"contracts/IdentiFi.sol:IdentiFi","label":"lastName","offset":0,"slot":"1","type":"t_string_storage"},{"astId":29,"contract":"contracts/IdentiFi.sol:IdentiFi","label":"email","offset":0,"slot":"2","type":"t_string_storage"},{"astId":31,"contract":"contracts/IdentiFi.sol:IdentiFi","label":"homeAddress","offset":0,"slot":"3","type":"t_string_storage"},{"astId":33,"contract":"contracts/IdentiFi.sol:IdentiFi","label":"phoneNumber","offset":0,"slot":"4","type":"t_string_storage"},{"astId":35,"contract":"contracts/IdentiFi.sol:IdentiFi","label":"dateOfBirth","offset":0,"slot":"5","type":"t_string_storage"}],"numberOfBytes":"192"},"t_struct(ProfessionalInfo)57_storage":{"encoding":"inplace","label":"struct IdentiFi.ProfessionalInfo","members":[{"astId":45,"contract":"contracts/IdentiFi.sol:IdentiFi","label":"education","offset":0,"slot":"0","type":"t_string_storage"},{"astId":47,"contract":"contracts/IdentiFi.sol:IdentiFi","label":"workHistory","offset":0,"slot":"1","type":"t_string_storage"},{"astId":49,"contract":"contracts/IdentiFi.sol:IdentiFi","label":"jobTitle","offset":0,"slot":"2","type":"t_string_storage"},{"astId":51,"contract":"contracts/IdentiFi.sol:IdentiFi","label":"userDescription","offset":0,"slot":"3","type":"t_string_storage"},{"astId":54,"contract":"contracts/IdentiFi.sol:IdentiFi","label":"skills","offset":0,"slot":"4","type":"t_array(t_string_storage)dyn_storage"},{"astId":56,"contract":"contracts/IdentiFi.sol:IdentiFi","label":"imageUrl","offset":0,"slot":"5","type":"t_string_storage"}],"numberOfBytes":"192"},"t_struct(SocialLinks)43_storage":{"encoding":"inplace","label":"struct IdentiFi.SocialLinks","members":[{"astId":38,"contract":"contracts/IdentiFi.sol:IdentiFi","label":"xProfile","offset":0,"slot":"0","type":"t_string_storage"},{"astId":40,"contract":"contracts/IdentiFi.sol:IdentiFi","label":"instagramProfile","offset":0,"slot":"1","type":"t_string_storage"},{"astId":42,"contract":"contracts/IdentiFi.sol:IdentiFi","label":"linkedinProfile","offset":0,"slot":"2","type":"t_string_storage"}],"numberOfBytes":"96"},"t_struct(User)23_storage":{"encoding":"inplace","label":"struct IdentiFi.User","members":[{"astId":8,"contract":"contracts/IdentiFi.sol:IdentiFi","label":"basicInfo","offset":0,"slot":"0","type":"t_struct(BasicInfo)36_storage"},{"astId":11,"contract":"contracts/IdentiFi.sol:IdentiFi","label":"socialLinks","offset":0,"slot":"6","type":"t_struct(SocialLinks)43_storage"},{"astId":14,"contract":"contracts/IdentiFi.sol:IdentiFi","label":"professionalInfo","offset":0,"slot":"9","type":"t_struct(ProfessionalInfo)57_storage"},{"astId":17,"contract":"contracts/IdentiFi.sol:IdentiFi","label":"visibility","offset":0,"slot":"15","type":"t_struct(Visibility)68_storage"},{"astId":19,"contract":"contracts/IdentiFi.sol:IdentiFi","label":"exist","offset":0,"slot":"16","type":"t_bool"},{"astId":22,"contract":"contracts/IdentiFi.sol:IdentiFi","label":"appliedJob","offset":0,"slot":"17","type":"t_array(t_uint256)dyn_storage"}],"numberOfBytes":"576"},"t_struct(Visibility)68_storage":{"encoding":"inplace","label":"struct IdentiFi.Visibility","members":[{"astId":59,"contract":"contracts/IdentiFi.sol:IdentiFi","label":"education","offset":0,"slot":"0","type":"t_bool"},{"astId":61,"contract":"contracts/IdentiFi.sol:IdentiFi","label":"workHistory","offset":1,"slot":"0","type":"t_bool"},{"astId":63,"contract":"contracts/IdentiFi.sol:IdentiFi","label":"phoneNumber","offset":2,"slot":"0","type":"t_bool"},{"astId":65,"contract":"contracts/IdentiFi.sol:IdentiFi","label":"homeAddress","offset":3,"slot":"0","type":"t_bool"},{"astId":67,"contract":"contracts/IdentiFi.sol:IdentiFi","label":"dateOfBirth","offset":4,"slot":"0","type":"t_bool"}],"numberOfBytes":"32"},"t_uint256":{"encoding":"inplace","label":"uint256","numberOfBytes":"32"}}},"userdoc":{"kind":"user","methods":{},"version":1}}}}